:100000000C942A000C9447000C9447000C94470071
:100010000C9447000C9447000C9447000C94470044
:100020000C9447000C9447000C9447000C94470034
:100030000C9447000C9447000C9447000C94470024
:100040000C9447000C9447000C9447000C94470014
:100050000C94470011241FBECFE5D4E0DEBFCDBF16
:1000600010E0A0E6B0E0EEEFF1E002C005900D92E6
:10007000A639B107D9F720E0A6E9B0E001C01D928A
:10008000A739B207E1F70E94D3000C94FD000C944D
:100090000000DA9A87EC90E00197F1F700C00000C9
:1000A000DA980895CF93C82FD8988BB38F708BBBF5
:1000B0008BB39C2F907F892B8BBB0E9449008BB305
:1000C0008F708BBB2BB330E1C302C0011124822B94
:1000D0008BBBCF910C944900CF93C82FD89A8BB388
:1000E0008F708BBB8BB39C2F907F892B8BBB0E9417
:1000F00049008BB38F708BBB2BB330E1C302C001BF
:100100001124822B8BBBCF910C944900CF93DF93AA
:10011000EC018991882319F00E946C00FACFDF91DD
:10012000CF91089583E00E94520082E00E94520025
:1001300088E20E9452008EE00E94520080E80E94F5
:10014000520084E690E00E9486002FEF80E792E064
:10015000215080409040E1F700C0000081E00E9403
:10016000520086E00E94520080E80C94520010BCBD
:1001700083E389B988E18AB986E880BD08958CB99E
:100180005D9BFECF08955F9BFECF8CB10895CF930A
:10019000DF93EC018991882319F00E94BF00FACF08
:1001A000DF91CF9108958FEF8ABB87E087BB0E94D4
:1001B00092000E94B70085E790E00E94C7008DE0A2
:1001C0000E94BF0088E890E00E94C7000E94C30020
:1001D000809396008DE00E94BF0080EC0E94520048
:1001E000809196000E946C0082E990E00E94C70016
:0E01F000809196000E94BF00E2CFF894FFCFEE
:1001FE00000000414C434420544553542053554372
:10020E004345535300496E697369616C6973617339
:10021E006920555341525400496E707574206973AC
:06022E003A003E3E000014
:00000001FF
