:100000000C942A000C943C000C943C000C943C0092
:100010000C943C000C943C000C943C000C943C0070
:100020000C943C000C943C000C943C000C943C0060
:100030000C943C000C943C000C943C000C943C0050
:100040000C943C000C943C000C943C000C943C0040
:100050000C943C0011241FBECFE5D4E0DEBFCDBF21
:1000600020E0A0E6B0E001C01D92A436B207E1F79F
:100070000E9482000C9498020C940000CF93DF93AE
:10008000CDB7DEB787E290E020E4FC01208386E272
:1000900090E027E8FC0120830000DF91CF910895D4
:1000A000CF93DF931F92CDB7DEB7898389818770A5
:1000B000898387E290E027E230E0F9012081322F46
:1000C000387F2981232BFC01208386E290E026E201
:1000D00030E0F90120812064FC012083000086E2E9
:1000E00090E0FC018081882F90E080749927892B13
:1000F000B1F784E290E0FC01808191810F90DF9163
:10010000CF910895CF93DF93CDB7DEB72E970FB67B
:10011000F894DEBF0FBECDBF87E390E02FEFFC0168
:1001200020830E943E0082E390E00E94EF0080E086
:100130000E9450009A83898381E00E9450009C8332
:100140008B8389819A81843F914058F48B819C8173
:10015000843F914030F488E390E02FEFFC0120834E
:1001600004C088E390E0FC0110829E012B5F3F4FAA
:1001700089819A814AE050E0B9010E9458029E01AB
:100180002B5F3F4F8B819C814AE050E0B9010E9478
:10019000580282E390E00E94EF00C9CFCF93DF9333
:1001A000CDB7DEB782E590E0FC01108283E590E0F8
:1001B00021E0FC012083000088E590E0FC018081C3
:1001C0008130D1F383E590E0FC01108288E590E076
:1001D00021E0FC0120830000DF91CF910895CF93AF
:1001E000DF93CDB7DEB72A970FB6F894DEBF0FBE08
:1001F000CDBF9A8789871A82198280916000909179
:100200006100A0916200B09163008B839C83AD83F9
:10021000BE8320E030E04AE754E46B817C818D812D
:100220009E810E94C301DC01CB01BC01CD010E9473
:100230006B01DC01CB0198878F8307C089819A818C
:1002400001969A8389830E94CE0049855A858F81C1
:100250009885489F9001499F300D589F300D11247B
:1002600089819A818217930748F300002A960FB676
:10027000F894DEBF0FBECDBFDF91CF910895CF932D
:10028000DF93CDB7DEB786E290E026E230E0F901F9
:1002900020812760FC01208387E290E027E230E0A4
:1002A000F90120812064FC01208386E290E026E2AF
:1002B00030E0F90120812068FC01208386E290E093
:1002C00026E230E0F90120812064FC012083000057
:1002D000DF91CF9108950E94A20188F09F5798F076
:1002E000B92F9927B751B0F0E1F0660F771F881F3B
:1002F000991F1AF0BA95C9F714C0B13091F00E9455
:10030000BC01B1E008950C94BC01672F782F8827B9
:10031000B85F39F0B93FCCF3869577956795B3957B
:10032000D9F73EF490958095709561957F4F8F4FEA
:100330009F4F089557FD9058440F551F59F05F3F48
:1003400071F04795880F97FB991F61F09F3F79F0F7
:1003500087950895121613061406551FF2CF469579
:10036000F1DF08C0161617061806991FF1CF8695FB
:100370007105610508940895E894BB2766277727DF
:10038000CB0197F908950E94D6010C9447020E9470
:10039000390238F00E94400220F0952311F00C94AD
:1003A00030020C94360211240C94BD010E949A0173
:1003B00070F3959FC1F3950F50E0551F629FF001B8
:1003C000729FBB27F00DB11D639FAA27F00DB11DD1
:1003D000AA1F649F6627B00DA11D661F829F22275A
:1003E000B00DA11D621F739FB00DA11D621F839FE1
:1003F000A00D611D221F749F3327A00D611D231FB7
:10040000849F600D211D822F762F6A2F11249F5704
:1004100050409AF0F1F088234AF0EE0FFF1FBB1F07
:10042000661F771F881F91505040A9F79E3F5105C6
:1004300080F00C9430020C94BD015F3FE4F3983ED1
:10044000D4F3869577956795B795F795E7959F5F70
:10045000C1F7FE2B880F911D9695879597F9089502
:1004600097F99F6780E870E060E008959FEF80EC67
:10047000089500240A94161617061806090608950A
:1004800000240A9412161306140605060895092E70
:100490000394000C11F4882352F0BB0F40F4BF2BDF
:1004A00011F460FF04C06F5F7F4F8F4F9F4F08951F
:1004B0004532510520F4423010F00C946302FB01E8
:1004C0001082CB010895BB274A3031F4992322F4DE
:1004D000BDE2909581959F4F0C946F02BB27FB0165
:1004E0005527AA27880F991FAA1FA41710F0A41B2D
:1004F00083955051B9F7A05DAA3308F0A95DA19387
:10050000009779F7B111B1931192CB010C94880245
:10051000DC01FC01672F71917723E1F7329704C06A
:100520007C916D9370836291AE17BF07C8F30895F5
:04053000F894FFCF6D
:00000001FF
