:100000000C942A000C943C000C943C000C943C0092
:100010000C943C000C943C000C943C000C943C0070
:100020000C943C000C943C000C943C000C943C0060
:100030000C943C000C943C000C943C000C943C0050
:100040000C943C000C943C000C943C000C943C0040
:100050000C943C0011241FBECFE5D4E0DEBFCDBF21
:1000600020E0A0E6B0E001C01D92A436B207E1F79F
:100070000E943E000C94C9010C940000CF93DF93C2
:10008000CDB7DEB780E090E0A0E8BFE380936000EA
:1000900090936100A0936200B09363008AE390E0C4
:1000A00021E0FC0120838AE390E02AE330E0F901BB
:1000B00020812068FC0120838BE390E02BE330E07B
:1000C000F901308121E02327FC01208385E090E0C5
:1000D0000E948C00F1CFCF93DF93CDB7DEB782E5DE
:1000E00090E0FC01108283E590E021E0FC01208398
:1000F000000088E590E0FC0180818130D1F383E548
:1001000090E0FC01108288E590E021E0FC01208372
:100110000000DF91CF910895CF93DF93CDB7DEB785
:100120002A970FB6F894DEBF0FBECDBF9A87898796
:100130001A8219828091600090916100A091620002
:10014000B09163008B839C83AD83BE8320E030E05D
:100150004AE754E46B817C818D819E810E94340149
:10016000DC01CB01BC01CD010E94DC00DC01CB0134
:1001700098878F8307C089819A8101969A838983A2
:100180000E946B0049855A858F819885489F900110
:10019000499F300D589F300D112489819A81821713
:1001A000930748F300002A960FB6F894DEBF0FBEFF
:1001B000CDBFDF91CF9108950E94130188F09F5722
:1001C00098F0B92F9927B751B0F0E1F0660F771F7B
:1001D000881F991F1AF0BA95C9F714C0B13091F071
:1001E0000E942D01B1E008950C942D01672F782F06
:1001F0008827B85F39F0B93FCCF386957795679536
:10020000B395D9F73EF490958095709561957F4FA1
:100210008F4F9F4F089557FD9058440F551F59F029
:100220005F3F71F04795880F97FB991F61F09F3FE3
:1002300079F087950895121613061406551FF2CF0C
:100240004695F1DF08C0161617061806991FF1CF5C
:1002500086957105610508940895E894BB27662783
:100260007727CB0197F908950E9447010C94B801B4
:100270000E94AA0138F00E94B10120F0952311F0EC
:100280000C94A1010C94A70111240C942E010E943E
:100290000B0170F3959FC1F3950F50E0551F629FBE
:1002A000F001729FBB27F00DB11D639FAA27F00DCF
:1002B000B11DAA1F649F6627B00DA11D661F829FF6
:1002C0002227B00DA11D621F739FB00DA11D621FDB
:1002D000839FA00D611D221F749F3327A00D611DF8
:1002E000231F849F600D211D822F762F6A2F1124DA
:1002F0009F5750409AF0F1F088234AF0EE0FFF1F0D
:10030000BB1F661F771F881F91505040A9F79E3F63
:10031000510580F00C94A1010C942E015F3FE4F391
:10032000983ED4F3869577956795B795F795E795B9
:100330009F5FC1F7FE2B880F911D9695879597F9C2
:10034000089597F99F6780E870E060E008959FEF57
:1003500080EC089500240A9416161706180609065C
:10036000089500240A94121613061406050608952B
:10037000092E0394000C11F4882352F0BB0F40F4B3
:10038000BF2B11F460FF04C06F5F7F4F8F4F9F4FF3
:060390000895F894FFCF70
:00000001FF
