:100000000C942A000C943F000C943F000C943F0089
:100010000C943F000C943F000C943F000C943F0064
:100020000C943F000C943F000C943F000C943F0054
:100030000C943F000C943F000C943F000C943F0044
:100040000C943F000C943F000C943F000C943F0034
:100050000C943F0011241FBECFE5D4E0DEBFCDBF1E
:1000600010E0A0E6B0E0ECE1FDE002C005900D92EA
:10007000A037B107D9F70E946E020C948C060C943D
:100080000000CF93DF93CDB7DEB782E590E0FC01AF
:10009000108283E590E021E0FC012083000088E5E8
:1000A00090E0FC0180818130D1F383E590E0FC0198
:1000B000108288E590E021E0FC0120830000DF91C0
:1000C000CF910895CF93DF93CDB7DEB72A970FB6C0
:1000D000F894DEBF0FBECDBF9A8789871A82198236
:1000E00080E090E0A0E8BFE38B839C83AD83BE8378
:1000F00020E030E04AE754E46B817C818D819E8171
:100100000E94F705DC01CB01BC01CD010E949F05D7
:10011000DC01CB0198878F8307C089819A81019682
:100120009A8389830E94410049855A858F819885E9
:10013000489F9001499F300D589F300D11248981AF
:100140009A818217930748F300002A960FB6F89415
:10015000DEBF0FBECDBFDF91CF910895CF93DF9368
:10016000CDB7DEB741E060E083E00E947D0241E070
:1001700061E083E00E947D0241E062E083E00E9452
:100180007D0261E082E00E94B00484E190E00E9480
:10019000620088E30E94D9008CE00E94D90081E0CF
:1001A0000E94D90086E00E94D9000000DF91CF9123
:1001B0000895CF93DF931F92CDB7DEB7898340E0D8
:1001C00060E083E00E94600340E061E083E00E9421
:1001D000600381E090E00E94620041E062E083E021
:1001E0000E94600381E090E00E946200698182E0E9
:1001F0000E94EA0481E090E00E94620040E062E038
:1002000083E00E94600381E090E00E9462000000B1
:100210000F90DF91CF910895CF93DF931F92CDB7C9
:10022000DEB7898341E060E083E00E94600340E044
:1002300061E083E00E94600381E090E00E94620040
:1002400041E062E083E00E94600381E090E00E9470
:100250006200698182E00E94EA0481E090E00E94ED
:10026000620040E062E083E00E94600381E090E091
:100270000E94620000000F90DF91CF910895CF930C
:10028000DF9300D0CDB7DEB79A8389830BC0898115
:100290009A819C012F5F3F4F3A832983FC01808123
:1002A0000E940C0189819A81FC018081882379F761
:1002B00000000F900F90DF91CF910895CF93DF93BF
:1002C00000D01F92CDB7DEB78A836B8319828A81F3
:1002D000882F90E08130910579F0823091051CF4EF
:1002E000892B39F015C08230910551F0039761F0E8
:1002F0000FC08B8189830CC08B81805C898308C08F
:100300008B81805F898304C08B81805B898300003F
:10031000898180680E94D90000000F900F900F9093
:10032000DF91CF910895CF93DF9300D000D0CDB768
:10033000DEB789836A835C834B836A8189810E94EB
:100340005E018B819C810E943F0100000F900F9005
:100350000F900F90DF91CF910895CF93DF93CDB79A
:10036000DEB781E00E94D9000000DF91CF910895AF
:10037000EF92FF920F931F93CF93DF93CDB7DEB72A
:1003800069970FB6F894DEBF0FBECDBF6E8B7F8B23
:10039000888F998F20E1CE010696FC01322F1192B1
:1003A0003A95E9F719828E899F89A88DB98D8A833C
:1003B0009B83AC83BD838E899F89A88DB98D892B42
:1003C0008A2B8B2BC9F480E30E940C017AC08981AF
:1003D0008F5F89838A819B81AC81BD812AE030E077
:1003E00040E050E0BC01CD010E945E05DA01C90188
:1003F0008A839B83AC83BD838A819B81AC81BD81D1
:10040000892B8A2B8B2B19F71A821B821C821D8247
:1004100045C08981882F90E001979C01990F440B7A
:10042000550B8A819B81AC81BD8179018A01E81AD3
:10043000F90A0A0B1B0B8E899F89A88DB98D2AE0BA
:1004400030E040E050E0BC01CD010E945E05DC01DF
:10045000CB01805D282FCE0106968E0D9F1DFC01DD
:1004600020838E899F89A88DB98D2AE030E040E0F5
:1004700050E0BC01CD010E945E05DA01C9018E8BFE
:100480009F8BA88FB98F8A819B81AC81BD8101969A
:10049000A11DB11D8A839B83AC83BD838981282FD5
:1004A00030E040E050E08A819B81AC81BD818217C1
:1004B0009307A407B5070CF4ACCFCE0106960E94B3
:1004C0003F0169960FB6F894DEBF0FBECDBFDF9136
:1004D000CF911F910F91FF90EF900895CF93DF93ED
:1004E000CDB7DEB70E94AE0080E690E00E943F01EB
:1004F00080E090E0DF91CF910895CF93DF9300D01B
:100500001F92CDB7DEB789836A834B83898184309C
:1005100020F08A81883008F0CCC08981882F90E053
:1005200081309105E1F1823091051CF4892B49F06D
:10053000C0C08230910509F460C0039709F48BC0F4
:10054000B8C08B818823B1F48AE390E02AE330E0DD
:10055000F9012081622F2A81422F50E021E030E012
:1005600002C0220F331F4A95E2F720952623FC0193
:1005700020839FC08AE390E02AE330E0F9012081E4
:10058000622F2A81422F50E021E030E002C0220F8A
:10059000331F4A95E2F7262BFC0120838AC08B810A
:1005A0008823B1F487E390E027E330E0F90120816C
:1005B000622F2A81422F50E021E030E002C0220F5A
:1005C000331F4A95E2F720952623FC01208371C052
:1005D00087E390E027E330E0F9012081622F2A8150
:1005E000422F50E021E030E002C0220F331F4A9535
:1005F000E2F7262BFC0120835CC08B818823B1F4B9
:1006000084E390E024E330E0F9012081622F2A8125
:10061000422F50E021E030E002C0220F331F4A9504
:10062000E2F720952623FC01208343C084E390E079
:1006300024E330E0F9012081622F2A81422F50E02B
:1006400021E030E002C0220F331F4A95E2F7262B4B
:10065000FC0120832EC08B818823B1F481E390E0DC
:1006600021E330E0F9012081622F2A81422F50E0FE
:1006700021E030E002C0220F331F4A95E2F72095B7
:100680002623FC01208314C081E390E021E330E0C5
:10069000F9012081622F2A81422F50E021E030E0D1
:1006A00002C0220F331F4A95E2F7262BFC0120835C
:1006B000000000000F900F900F90DF91CF910895F0
:1006C000CF93DF9300D01F92CDB7DEB789836A83C3
:1006D0004B838981843020F08A81883008F0CCC037
:1006E0008981882F90E081309105E1F18230910578
:1006F0001CF4892B49F0C0C08230910509F460C018
:10070000039709F48BC0B8C08B818823B1F48BE3C5
:1007100090E02BE330E0F9012081622F2A81422F03
:1007200050E021E030E002C0220F331F4A95E2F78B
:1007300020952623FC0120839FC08BE390E02BE3D0
:1007400030E0F9012081622F2A81422F50E021E020
:1007500030E002C0220F331F4A95E2F7262BFC013E
:1007600020838AC08B818823B1F488E390E028E35A
:1007700030E0F9012081622F2A81422F50E021E0F0
:1007800030E002C0220F331F4A95E2F7209526235E
:10079000FC01208371C088E390E028E330E0F90198
:1007A0002081622F2A81422F50E021E030E002C0F8
:1007B000220F331F4A95E2F7262BFC0120835CC0F1
:1007C0008B818823B1F485E390E025E330E0F901E3
:1007D0002081622F2A81422F50E021E030E002C0C8
:1007E000220F331F4A95E2F720952623FC01208330
:1007F00043C085E390E025E330E0F9012081622FDA
:100800002A81422F50E021E030E002C0220F331F46
:100810004A95E2F7262BFC0120832EC08B8188238A
:10082000B1F482E390E022E330E0F9012081622F0D
:100830002A81422F50E021E030E002C0220F331F16
:100840004A95E2F720952623FC01208314C082E319
:1008500090E022E330E0F9012081622F2A81422FCB
:1008600050E021E030E002C0220F331F4A95E2F74A
:10087000262BFC012083000000000F900F900F90AA
:10088000DF91CF910895CF93DF9300D01F92CDB722
:10089000DEB78A836B8319828A81843020F08B8152
:1008A000883008F056C08A81882F90E08130910509
:1008B000E9F0823091051CF4892B39F04AC082306E
:1008C000910529F10397A1F144C089E390E0FC016F
:1008D0008081882F90E02B81222F30E002C09595F7
:1008E00087952A95E2F78170898333C086E390E08B
:1008F000FC018081882F90E02B81222F30E002C004
:10090000959587952A95E2F78170898322C083E3C4
:1009100090E0FC018081882F90E02B81222F30E035
:1009200002C0959587952A95E2F78170898311C059
:1009300080E390E0FC018081882F90E02B81222FC2
:1009400030E002C0959587952A95E2F781708983FA
:10095000000089810F900F900F90DF91CF91089543
:10096000CF93DF9300D0CDB7DEB789836A838981C7
:10097000843050F58981882F90E08130910591F085
:10098000823091051CF4892B39F01EC0823091050C
:1009900079F0039799F018C08AE390E02A81FC016E
:1009A000208312C087E390E02A81FC0120830CC0E1
:1009B00084E390E02A81FC01208306C081E390E07B
:1009C0002A81FC012083000000000F900F90DF912E
:1009D000CF910895CF93DF9300D0CDB7DEB7898351
:1009E0006A838981843050F58981882F90E0813035
:1009F000910591F0823091051CF4892B39F01EC0CD
:100A00008230910579F0039799F018C08BE390E05C
:100A10002A81FC01208312C088E390E02A81FC0136
:100A200020830CC085E390E02A81FC01208306C06E
:100A300082E390E02A81FC012083000000000F90F7
:100A40000F90DF91CF910895CF93DF9300D0CDB772
:100A5000DEB78A8319828A81843050F58A81882F93
:100A600090E08130910591F0823091051CF4892B42
:100A700039F01EC08230910579F0039799F018C0C3
:100A800089E390E0FC018081898312C086E390E0D5
:100A9000FC01808189830CC083E390E0FC018081AC
:100AA000898306C080E390E0FC0180818983000097
:100AB00089810F900F90DF91CF910895052E97FBBC
:100AC0001EF400940E94750557FD07D00E947D0515
:100AD00007FC03D04EF40C94750550954095309565
:100AE00021953F4F4F4F5F4F08959095809570959A
:100AF00061957F4F8F4F9F4F0895A1E21A2EAA1B39
:100B0000BB1BFD010DC0AA1FBB1FEE1FFF1FA217BD
:100B1000B307E407F50720F0A21BB30BE40BF50BBA
:100B2000661F771F881F991F1A9469F76095709543
:100B3000809590959B01AC01BD01CF0108950E9465
:100B4000D60588F09F5798F0B92F9927B751B0F084
:100B5000E1F0660F771F881F991F1AF0BA95C9F741
:100B600014C0B13091F00E94F005B1E008950C94EA
:100B7000F005672F782F8827B85F39F0B93FCCF39D
:100B8000869577956795B395D9F73EF490958095BE
:100B9000709561957F4F8F4F9F4F089557FD9058E7
:100BA000440F551F59F05F3F71F04795880F97FB31
:100BB000991F61F09F3F79F08795089512161306EB
:100BC0001406551FF2CF4695F1DF08C0161617061A
:100BD0001806991FF1CF869571056105089408954F
:100BE000E894BB2766277727CB0197F908950E94E1
:100BF0000A060C947B060E946D0638F00E9474066B
:100C000020F0952311F00C9464060C946A061124CC
:100C10000C94F1050E94CE0570F3959FC1F3950FDA
:100C200050E0551F629FF001729FBB27F00DB11D70
:100C3000639FAA27F00DB11DAA1F649F6627B00D00
:100C4000A11D661F829F2227B00DA11D621F739FE9
:100C5000B00DA11D621F839FA00D611D221F749FF7
:100C60003327A00D611D231F849F600D211D822F3E
:100C7000762F6A2F11249F5750409AF0F1F0882365
:100C80004AF0EE0FFF1FBB1F661F771F881F915092
:100C90005040A9F79E3F510580F00C9464060C94D7
:100CA000F1055F3FE4F3983ED4F386957795679519
:100CB000B795F795E7959F5FC1F7FE2B880F911DBC
:100CC0009695879597F9089597F99F6780E870E062
:100CD00060E008959FEF80EC089500240A941616B2
:100CE000170618060906089500240A94121613061A
:100CF000140605060895092E0394000C11F48823A8
:100D000052F0BB0F40F4BF2B11F460FF04C06F5FC3
:0C0D10007F4F8F4F9F4F0895F894FFCF46
:100D1C0048656C6C6F20576F726C64212F6E0000ED
:00000001FF
