:100000000C942A000C943F000C943F000C943F0089
:100010000C943F000C943F000C943F000C943F0064
:100020000C943F000C943F000C943F000C943F0054
:100030000C943F000C943F000C943F000C943F0044
:100040000C943F000C943F000C943F000C943F0034
:100050000C943F0011241FBECFE5D4E0DEBFCDBF1E
:1000600010E0A0E6B0E0E0ECF5E002C005900D92F3
:10007000A436B107D9F70E94AE000C94DE020C94AE
:1000800000001ABA87E886B980E487B908958770B6
:10009000806487B9369A349BFECF349A81E090E031
:1000A0000E94600084B195B1089582EF82BF81E023
:1000B00083BF88B78130E9F313BE81E088BF08951C
:1000C0000F931F93CF93DF93EC0120E030E04AE7DA
:1000D00054E46091600070916100809162009091A1
:1000E00063000E9471020E94B401C69F8001C79FF5
:1000F000100DD69F100D1124C0E0D0E0C017D1071D
:1001000021F021960E945500F9CFDF91CF911F91E8
:100110000F9108950F931F93CF93DF93EC0160919C
:1001200060007091610080916200909163000E9474
:10013000B401C69F8001C79F100DD69F100D1124DA
:10014000C0E0D0E0C017D10721F021960E945500F1
:10015000F9CFDF91CF911F910F9108950E94410037
:100160008D9A1DBC1CBC83EC99E097BD86BD82E8CE
:100170008FBD8BE18EBD80E00E944700BC01990FCE
:10018000880B990B0E94E50123E333E34BE850E42D
:100190000E94420120E030E042E852E40E94D60092
:1001A0000E94B4017BBD6ABDE6CF5058BB27AA2789
:1001B0000E94ED000C9437020E94290238F00E9440
:1001C000300220F039F49F3F19F426F40C942602F3
:1001D0000EF4E095E7FB0C942002E92F0E94480200
:1001E00058F3BA17620773078407950720F079F46C
:1001F000A6F50C946A020EF4E0950B2EBA2FA02DF2
:100200000B01B90190010C01CA01A0011124FF27C3
:10021000591B99F0593F50F4503E68F11A16F040BE
:10022000A22F232F342F4427585FF3CF46953795BD
:100230002795A795F0405395C9F77EF41F16BA0B82
:10024000620B730B840BBAF09150A1F0FF0FBB1F30
:10025000661F771F881FC2F70EC0BA0F621F731F79
:10026000841F48F4879577956795B795F7959E3FD6
:1002700008F0B0CF9395880F08F09927EE0F979567
:10028000879508950E9456010C9437020E9430020F
:1002900058F00E94290240F029F45F3F29F00C94A5
:1002A000200251110C946B020C9426020E94480209
:1002B00068F39923B1F3552391F3951B550BBB2795
:1002C000AA2762177307840738F09F5F5F4F220FDA
:1002D000331F441FAA1FA9F335D00E2E3AF0E0E8D1
:1002E00032D091505040E695001CCAF72BD0FE2F1B
:1002F00029D0660F771F881FBB1F261737074807AF
:10030000AB07B0E809F0BB0B802DBF01FF27935866
:100310005F4F3AF09E3F510578F00C9420020C9408
:100320006B025F3FE4F3983ED4F38695779567952B
:10033000B795F7959F5FC9F7880F911D969587959B
:1003400097F90895E1E0660F771F881FBB1F6217BA
:1003500073078407BA0720F0621B730B840BBA0B78
:10036000EE1F88F7E09508950E94500288F09F578D
:1003700098F0B92F9927B751B0F0E1F0660F771FC9
:10038000881F991F1AF0BA95C9F714C0B13091F0BF
:100390000E946A02B1E008950C946A02672F782FD8
:1003A0008827B85F39F0B93FCCF386957795679584
:1003B000B395D9F73EF490958095709561957F4FF0
:1003C0008F4F9F4F0895E89409C097FB3EF4909596
:1003D0008095709561957F4F8F4F9F4F9923A9F01E
:1003E000F92F96E9BB279395F695879577956795AD
:1003F000B795F111F8CFFAF4BB0F11F460FF1BC0F1
:100400006F5F7F4F8F4F9F4F16C0882311F096E983
:1004100011C0772321F09EE8872F762F05C0662331
:1004200071F096E8862F70E060E02AF09A95660FEA
:10043000771F881FDAF7880F9695879597F90895A3
:1004400097F99F6780E870E060E008959FEF80EC87
:10045000089500240A94161617061806090608952A
:1004600000240A9412161306140605060895092E90
:100470000394000C11F4882352F0BB0F40F4BF2BFF
:1004800011F460FF04C06F5F7F4F8F4F9F4F08953F
:1004900057FD9058440F551F59F05F3F71F0479535
:1004A000880F97FB991F61F09F3F79F0879508951A
:1004B000121613061406551FF2CF4695F1DF08C039
:1004C000161617061806991FF1CF86957105610556
:1004D00008940895E894BB2766277727CB0197F9FE
:1004E00008950E9484020C9437020E94290238F079
:1004F0000E94300220F0952311F00C9420020C94FD
:10050000260211240C946B020E94480270F3959FFE
:10051000C1F3950F50E0551F629FF001729FBB27FA
:10052000F00DB11D639FAA27F00DB11DAA1F649F96
:100530006627B00DA11D661F829F2227B00DA11D49
:10054000621F739FB00DA11D621F839FA00D611DCF
:10055000221F749F3327A00D611D231F849F600DF0
:10056000211D822F762F6A2F11249F5750409AF019
:10057000F1F088234AF0EE0FFF1FBB1F661F771FA5
:10058000881F91505040A9F79E3F510580F00C9470
:1005900020020C946B025F3FE4F3983ED4F38695FF
:1005A00077956795B795F795E7959F5FC1F7FE2B10
:1005B000880F911D9695879597F90895F894FFCF28
:0405C0000000803F78
:00000001FF
