:100000000C942A000C943E000C943C000C943C0090
:100010000C943C000C943C000C943C000C943C0070
:100020000C943C000C943C000C943C000C943C0060
:100030000C943C000C943C000C943C000C943C0050
:100040000C943C000C943C000C943C000C943C0040
:100050000C943C0011241FBECFE5D4E0DEBFCDBF21
:1000600020E0A0E6B0E001C01D92A436B207E1F79F
:100070000E94C0000C94C6010C9400001F920F92C5
:100080000FB60F9211242F933F934F935F936F936B
:100090007F938F939F93AF93BF93EF93FF9385B31A
:1000A000809585BB82E390E00E947200FF91EF9102
:1000B000BF91AF919F918F917F916F915F914F9180
:1000C0003F912F910F900FBE0F901F90189582EFC8
:1000D00082BF81E083BF88B78130E9F313BE81E03E
:1000E00088BF08950F931F93CF93DF93EC0120E017
:1000F00030E04AE754E460916000709161008091C3
:100100006200909163000E9431010E94D900C69F55
:100110008001C79F100DD69F100D1124C0E0D0E0C4
:10012000C017D10721F021960E946700F9CFDF9117
:10013000CF911F910F9108950F931F93CF93DF934A
:10014000EC0160916000709161008091620090917B
:1001500063000E94D900C69F8001C79F100DD69FE3
:10016000100D1124C0E0D0E0C017D10721F0219676
:100170000E946700F9CFDF91CF911F910F910895F1
:1001800080E090E0A0E0B1E4809360009093610093
:10019000A0936200B093630080E884BB87B3887F3C
:1001A00087BB84E082BB80E48BBF83E085BF78940B
:1001B000FFCF0E94100188F09F5798F0B92F992720
:1001C000B751B0F0E1F0660F771F881F991F1AF042
:1001D000BA95C9F714C0B13091F00E942A01B1E07C
:1001E00008950C942A01672F782F8827B85F39F07B
:1001F000B93FCCF3869577956795B395D9F73EF4DB
:1002000090958095709561957F4F8F4F9F4F089582
:1002100057FD9058440F551F59F05F3F71F04795B7
:10022000880F97FB991F61F09F3F79F0879508959C
:10023000121613061406551FF2CF4695F1DF08C0BB
:10024000161617061806991FF1CF869571056105D8
:1002500008940895E894BB2766277727CB0197F980
:1002600008950E9444010C94B5010E94A70138F042
:100270000E94AE0120F0952311F00C949E010C9485
:10028000A40111240C942B010E94080170F3959F86
:10029000C1F3950F50E0551F629FF001729FBB277D
:1002A000F00DB11D639FAA27F00DB11DAA1F649F19
:1002B0006627B00DA11D661F829F2227B00DA11DCC
:1002C000621F739FB00DA11D621F839FA00D611D52
:1002D000221F749F3327A00D611D231F849F600D73
:1002E000211D822F762F6A2F11249F5750409AF09C
:1002F000F1F088234AF0EE0FFF1FBB1F661F771F28
:10030000881F91505040A9F79E3F510580F00C94F2
:100310009E010C942B015F3FE4F3983ED4F3869545
:1003200077956795B795F795E7959F5FC1F7FE2B92
:10033000880F911D9695879597F9089597F99F676E
:1003400080E870E060E008959FEF80EC089500245D
:100350000A941616170618060906089500240A942A
:1003600012161306140605060895092E0394000CB0
:1003700011F4882352F0BB0F40F4BF2B11F460FF3F
:1003800004C06F5F7F4F8F4F9F4F0895F894FFCF4A
:00000001FF
