:100000000C942A000C9447000C9447000C94470071
:100010000C9447000C9447000C9447000C94470044
:100020000C9447000C9449000C9447000C94470032
:100030000C9447000C9447000C949E000C944700CD
:100040000C9447000C9447000C9447000C94470014
:100050000C94470011241FBECFE5D4E0DEBFCDBF16
:1000600010E0A0E6B0E0E2EAF4E002C005900D92F4
:10007000A037B107D9F720E0A0E7B0E001C01D929A
:10008000A237B207E1F70E941D010C944F020C94B5
:1000900000001F920F920FB60F9211240F900FBE07
:1000A0000F901F90189580E487B98FEE86B980E88D
:1000B00080BF089588BB84E082BB8AE090E00E9404
:1000C000CF0012BA089588E30E945A008CE00E9483
:1000D0005A0081E00E945A0086E00E945A0080E89F
:1000E0000C945A0088BB85E082BB8AE090E00E94B5
:1000F000CF0081E082BB0895EF92FF920F931F9390
:10010000CF93DF938C01C3EC8AE0E82EF12CC80179
:10011000B7010E944E018B01D82F8C2F0E945A00EC
:1001200080E38D0F0E947200C150CF3B81F7DF91B9
:10013000CF911F910F91FF90EF9008951F920F9212
:100140000FB60F9211242F933F934F935F936F93AA
:100150007F938F939F93AF93BF93EF93FF9384B15C
:1001600095B10E947C00FF91EF91BF91AF919F915B
:100170008F917F916F915F914F913F912F910F9050
:100180000FBE0F901F90189582EF82BF81E083BF52
:1001900088B78130E9F313BE81E088BF08950F93DB
:1001A0001F93CF93DF93EC0120E030E04AE754E463
:1001B0006091600070916100809162009091630095
:1001C0000E94BA010E946201C69F8001C79F100D64
:1001D000D69F100D1124C0E0D0E0C017D10721F048
:1001E00021960E94C400F9CFDF91CF911F910F910A
:1001F00008950F931F93CF93DF93EC0160916000FC
:100200007091610080916200909163000E94620190
:10021000C69F8001C79F100DD69F100D1124C0E00E
:10022000D0E0C017D10721F021960E94C400F9CF79
:10023000DF91CF911F910F910895CF93DF93CDB7A9
:10024000DEB72C970FB6F894DEBF0FBECDBF8CE0A3
:10025000E4E6F0E0DE01119601900D928A95E1F757
:1002600087E081BB8FEF87BB84BB0E9463008E0158
:100270000F5F1F4FF80181918F01803339F00E9489
:10028000720085E090E00E94CF00F4CF0E945300FE
:1002900085E083BF81E089BF7894FFCFAA1BBB1B99
:1002A00051E107C0AA1FBB1FA617B70710F0A61B76
:1002B000B70B881F991F5A95A9F780959095BC0197
:1002C000CD0108950E94990188F09F5798F0B92FA9
:1002D0009927B751B0F0E1F0660F771F881F991F7B
:1002E0001AF0BA95C9F714C0B13091F00E94B30169
:1002F000B1E008950C94B301672F782F8827B85F79
:1003000039F0B93FCCF3869577956795B395D9F7D2
:100310003EF490958095709561957F4F8F4F9F4FDC
:10032000089557FD9058440F551F59F05F3F71F0E5
:100330004795880F97FB991F61F09F3F79F087954C
:100340000895121613061406551FF2CF4695F1DFD5
:1003500008C0161617061806991FF1CF8695710565
:10036000610508940895E894BB2766277727CB0199
:1003700097F908950E94CD010C943E020E9430022C
:1003800038F00E94370220F0952311F00C942702D8
:100390000C942D0211240C94B4010E94910170F36D
:1003A000959FC1F3950F50E0551F629FF001729F1A
:1003B000BB27F00DB11D639FAA27F00DB11DAA1F29
:1003C000649F6627B00DA11D661F829F2227B00D76
:1003D000A11D621F739FB00DA11D621F839FA00D01
:1003E000611D221F749F3327A00D611D231F849F51
:1003F000600D211D822F762F6A2F11249F575040A8
:100400009AF0F1F088234AF0EE0FFF1FBB1F661F22
:10041000771F881F91505040A9F79E3F510580F0EB
:100420000C9427020C94B4015F3FE4F3983ED4F39C
:10043000869577956795B795F795E7959F5FC1F78F
:10044000FE2B880F911D9695879597F9089597F93A
:100450009F6780E870E060E008959FEF80EC08956A
:1004600000240A9416161706180609060895002493
:100470000A9412161306140605060895092E03940D
:10048000000C11F4882352F0BB0F40F4BF2B11F481
:1004900060FF04C06F5F7F4F8F4F9F4F0895F894A8
:0204A000FFCF8C
:1004A2000000803F414443204F55545055543A0078
:00000001FF
