:100000000C942A000C9447000C9447000C94470071
:100010000C9447000C9447000C9447000C94470044
:100020000C9447000C9450000C9447000C9447002B
:100030000C9447000C9447000C94A2000C944700C9
:100040000C9447000C9447000C9447000C94470014
:100050000C94470011241FBECFE5D4E0DEBFCDBF16
:1000600010E0A0E6B0E0E2E2F2E002C005900D92FE
:10007000AC36B107D9F720E0ACE6B0E001C01D9284
:10008000AE36B207E1F70E94C8000C940F010C9441
:10009000000080E487B98FEE86B980E880BF0895BC
:1000A0001F920F920FB60F9211240F900FBE0F9058
:1000B0001F90189588BB84E082BB8FE99FE0019771
:1000C000F1F700C0000012BA089588E30E945A00B8
:1000D0008CE00E945A0081E00E945A0086E00E9453
:1000E0005A0080E80C945A0088BB85E082BB8FE9F7
:1000F0009FE00197F1F700C0000081E082BB089506
:10010000EF92FF920F931F93CF93DF938C01C3EC79
:100110008AE0E82EF12CC801B7010E94FB008B0198
:10012000D82F8C2F0E945A0080E38D0F0E947400FC
:10013000C150CF3B81F7DF91CF911F910F91FF907D
:10014000EF9008951F920F920FB60F9211242F93E4
:100150003F934F935F936F937F938F939F93AF934F
:10016000BF93EF93FF9384B195B10E948000FF91FC
:10017000EF91BF91AF919F918F917F916F915F911F
:100180004F913F912F910F900FBE0F901F90189598
:10019000CF93DF93CDB7DEB72C970FB6F894DEBFC1
:1001A0000FBECDBF8CE0E0E6F0E0DE0111960190DD
:1001B0000D928A95E1F787E081BB8FEF87BB84BB07
:1001C0000E9465008E010F5F1F4FF80181918F0122
:1001D000803349F00E9474008FEC97E00197F1F7AB
:1001E00000C00000F2CF0E94490085E083BF81E09B
:1001F00089BF7894FFCFAA1BBB1B51E107C0AA1F80
:10020000BB1FA617B70710F0A61BB70B881F991FB7
:100210005A95A9F780959095BC01CD010895F89461
:02022000FFCF0E
:0C022200414443204F55545055543A00BD
:00000001FF
