:100000000C942A000C9447000C9447000C94470071
:100010000C9447000C9447000C9447000C94470044
:100020000C9447000C9447000C9447000C94470034
:100030000C9447000C9447000C9447000C94470024
:100040000C9447000C9447000C9447000C94470014
:100050000C94470011241FBECFE5D4E0DEBFCDBF16
:1000600010E0A0E6B0E0ECE8F3E102C005900D92EC
:10007000A43BB107D9F720E0A4EBB0E001C01D928A
:10008000A43FB207E1F70E9449000C94C4090C9404
:100090000000CF93DF93CDB7DEB7C557D1090FB6B8
:1000A000F894DEBF0FBECDBF82E390E00E946904EA
:1000B00081E00E94390660E082E00E94A00784E6A9
:1000C00090E00E94C80661E085E00E94A00780E7FA
:1000D00090E00E94C8068DE40E940B0888EE93E031
:1000E0000E94690460E081E00E94FF040E94800198
:1000F00088EE93E00E94690487E30E9419028983D5
:100100008981882F90E09E012E5E3F4F4AE050E0AB
:10011000B9010E94840960E082E00E94A007CE013C
:1001200042960E94C80688EE93E00E94690460E04F
:1001300081E00E94FF048981823989F460E082E0D5
:100140000E94A00786E790E00E94C80661E084E074
:100150000E94A00785E890E00E94C8061FC0898120
:10016000813919F08981803989F460E082E00E9448
:10017000A0078EE890E00E94C80661E084E00E943B
:10018000A00785E890E00E94C80608C060E080E013
:100190000E94A0078DE990E00E94C80660E081E01F
:1001A0000E94FF0482E00E94190289838981882FBE
:1001B00090E09E012E5E3F4F4AE050E0B9010E9460
:1001C000840960E082E00E94A007CE0142960E946E
:1001D000C80688EE93E00E94690460E081E00E9416
:1001E000FF0489818062682F82E00E94EC0183E035
:1001F0000E94190289838981882F90E09E012E5EDA
:100200003F4F4AE050E0B9010E94840960E082E07B
:100210000E94A007CE0142960E94C80688EE93E095
:100220000E94690460E081E00E94FF048981806887
:10023000682F83E00E94EC018CED95E00E94690438
:1002400060E081E00E94FF04CE010296BC0182E5DD
:100250000E94550289838981882F90E09E012E5E3D
:100260003F4F4AE050E0B9010E94840960E082E01B
:100270000E94A007CE0142960E94C80688EE93E035
:100280000E94690460E081E00E94FF04498160E00F
:1002900080E00E94C4078981813069F5CE01029611
:1002A0000E94EA03898389818130E9F4198213C0AD
:1002B0008981882F90E09E012E5F3F4F820F931F10
:1002C000FC0190818981880F492F60E00E94C4075A
:1002D00089818F5F89838981883050F384EC99E02C
:1002E0000E94690408C061E080E00E94A0078DEAD6
:1002F00090E00E94C80688EE93E00E946904A4CFB3
:10030000CF93DF93CDB7DEB7C556D1090FB6F894BA
:10031000DEBF0FBECDBF0E9449026DE88AE20E9497
:10032000EC016EE38BE20E94EC016EE18CE20E9434
:10033000EC0160E08DE20E94EC0160E485E10E9446
:10034000EC016DE381E10E94EC0184E10E9419025D
:1003500089838981882F90E09E012E5F3F4F4AE07C
:1003600050E0B9010E94840961E085E00E94A00785
:10037000CE0102960E94C80688EB9BE00E946904A9
:1003800060E081E00E94FF048981882F90E0837003
:100390009927892BB1F489818360682F84E10E94B9
:1003A000EC0184E10E941902898361E085E00E94EA
:1003B000A007CE0102960E94C80688EB9BE00E942F
:1003C00069040000CB59DF4F0FB6F894DEBF0FBEB3
:1003D000CDBFDF91CF910895CF93DF9300D0CDB7FC
:1003E000DEB789836A8388E390E028E330E0F9018F
:1003F00020812F7EFC0120838981882F90E0880F47
:10040000991F8E7799270E9451088A81882F90E042
:100410000E94510888E390E028E330E0F901208150
:100420002061FC01208300000F900F90DF91CF919D
:100430000895CF93DF9300D01F92CDB7DEB78B83A3
:1004400088E390E028E330E0F90120812F7EFC0171
:1004500020838B81882F90E0880F991F8E779927B2
:1004600080680E94510880E090E00E9451089A83C1
:10047000898388E390E028E330E0F901208120615E
:10048000FC01208389810F900F900F90DF91CF9115
:100490000895CF93DF93CDB7DEB76FE081E00E9480
:1004A000EC010000DF91CF9108950F931F93CF933C
:1004B000DF93CDB7DEB728970FB6F894DEBF0FBE37
:1004C000CDBF8E8378876F8367E08DE00E94EC015B
:1004D0008F8198852E81FC012083AE014E5F5F4F96
:1004E0002F8138858F8198858A0141E0BC018CE09D
:1004F0000E94940289838981813041F48A819B81A1
:10050000AC81BD814097A105B10511F083E08983DD
:10051000898128960FB6F894DEBF0FBECDBFDF915C
:10052000CF911F910F9108950F931F93CF93DF9356
:10053000CDB7DEB762970FB6F894DEBF0FBECDBF62
:100540008B877D876C874E87388B2F871A8B098B1B
:1005500083E089831A821B828B85882F90E08C3000
:10056000910541F00E9709F00AC082E18A8380E18B
:100570008B8305C087E78A8380E38B83000084E058
:100580000E9419028C838C818F77682F84E00E94EF
:10059000EC018AE00E9419028C838C818068682FAC
:1005A0008AE00E94EC0160E081E00E94EC011D8283
:1005B0001E821F82188617C08D819E812C853D85E5
:1005C000820F931FFC018081682F89E00E94EC015B
:1005D0008D819E81AF81B8850196A11DB11D8D834E
:1005E0009E83AF83B8878E85282F30E040E050E0AF
:1005F0008D819E81AF81B88582179307A407B507C7
:10060000D8F26B8581E00E94EC018B858C3051F42F
:100610008DE00E9419028C838C818068682F8DE0A8
:100620000E94EC0180ED97E0A0E0B0E08D839E8316
:10063000AF83B88784E00E9419028C838D819E81EC
:10064000AF81B8850197A109B1098D839E83AF83DE
:10065000B8878D819E81AF81B885892B8A2B8B2BA2
:1006600061F08C81882F90E081709927892B29F483
:100670009C818B8189238823E9F28DE00E941902F5
:10068000898789858F77682F8DE00E94EC018D81A5
:100690009E81AF81B885892B8A2B8B2B09F48EC064
:1006A00086E00E941902882F90E08B719927892B90
:1006B00009F082C081E089839C818A818923882F07
:1006C00090E081709927892B11F082E089838B85D6
:1006D0008C3009F073C08AE00E9419028C838CE090
:1006E0000E94190287708A878A858823E1F08C81AD
:1006F000882F90E001979C01220F331F220F331F98
:10070000220F331F8A85882F90E0820F931F092EB6
:10071000000CAA0BBB0B29893A89F90180839183CC
:10072000A283B38314C08C81882F90E0880F991F17
:10073000880F991F880F991F092E000CAA0BBB0B5D
:1007400029893A89F90180839183A283B3838C81BB
:10075000882311F481E08C838C81813110F080E159
:100760008C831D821E821F82188617C08D819E81F8
:100770002F8538898901080F191F89E00E94190205
:10078000F80180838D819E81AF81B8850196A11D7E
:10079000B11D8D839E83AF83B8878C81282F30E075
:1007A00040E050E08D819E81AF81B885821793072C
:1007B000A407B507D8F202C083E0898389816296D5
:1007C0000FB6F894DEBF0FBECDBFDF91CF911F9162
:1007D0000F9108950F931F93CF93DF93CDB7DEB79B
:1007E00029970FB6F894DEBF0FBECDBF99878887D3
:1007F0001B8260E08DE00E94EC018885998523E9E9
:10080000FC01208388859985019620E2FC012083E4
:10081000AE014C5F5F4F28853985888599858A01AF
:1008200042E0BC018CE00E9494028983898181307E
:1008300011F51A820FC08A81882F90E028853985AA
:10084000820F931FFC0180819B8189278B838A8182
:100850008F5F8A838A81843070F38A81882F90E049
:1008600028853985820F931FFC0190818B81981711
:1008700011F083E08983898129960FB6F894DEBF51
:100880000FBECDBFDF91CF911F910F910895CF93F0
:10089000DF93CDB7DEB782E590E022EFFC01208345
:1008A00083E590E021E0FC012083000088E590E0F2
:1008B000FC0180818130D1F383E590E0FC0110825E
:1008C00088E590E021E0FC0120830000DF91CF91DA
:1008D0000895CF93DF93CDB7DEB72A970FB6F8947C
:1008E000DEBF0FBECDBF9A8789871A821982809199
:1008F000600090916100A0916200B09163008B83D1
:100900009C83AD83BE8320E030E04AE754E46B81F2
:100910007C818D819E810E94EF08DC01CB01BC01AE
:10092000CD010E949708DC01CB0198878F8307C017
:1009300089819A8101969A8389830E944704498517
:100940005A858F819885489F9001499F300D589F07
:10095000300D112489819A818217930748F3000092
:100960002A960FB6F894DEBF0FBECDBFDF91CF91B0
:100970000895CF93DF93CDB7DEB72A970FB6F894DB
:10098000DEBF0FBECDBF9A8789871A8219828091F8
:10099000600090916100A0916200B09163008B8330
:1009A0009C83AD83BE836B817C818D819E810E94FF
:1009B0009708DC01CB0198878F8307C089819A81D2
:1009C00001969A8389830E94470449855A858F81BD
:1009D0009885489F9001499F300D589F300D1124F4
:1009E00089819A818217930748F300002A960FB6EF
:1009F000F894DEBF0FBECDBFDF91CF910895CF93A6
:100A0000DF9300D000D01F92CDB7DEB78C836D830B
:100A10008C8182958F7089838C818F708A838D8180
:100A2000882351F488E390E028E330E0F901208145
:100A30002D7FFC01208309C088E390E028E330E0AB
:100A4000F90120812260FC01208385E090E00E9472
:100A5000B90488E390E028E330E0F90120812860C0
:100A6000FC0120838BE390E0FC018081282F2F7014
:100A70008981882F90E082959295907F9827807F3A
:100A80009827822B8B838BE390E02B81FC012083C2
:100A900085E090E00E94B90488E390E028E330E02C
:100AA000F9012081277FFC01208385E090E00E94EE
:100AB000B90488E390E028E330E0F9012081286060
:100AC000FC0120838BE390E0FC018081282F2F70B4
:100AD0008A81882F90E082959295907F9827807FD9
:100AE0009827822B8B838BE390E02B81FC01208362
:100AF00085E090E00E94B90488E390E028E330E0CC
:100B0000F9012081277FFC01208385E090E00E948D
:100B1000B9040E94940500000F900F900F900F9061
:100B20000F90DF91CF910895CF93DF9300D01F9264
:100B3000CDB7DEB719828AE390E02AE330E0F9010D
:100B400020812F70FC01208388E390E028E330E0CF
:100B5000F90120812460FC01208388E390E028E3F0
:100B600030E0F90120812D7FFC01208360E070E0FE
:100B700080E09FE30E94B90488E390E028E330E03E
:100B8000F90120812860FC01208360E070E080E0B2
:100B90009FE30E94B90489E390E0FC018081829583
:100BA0008F70898389818295807F898360E070E07E
:100BB00080E09FE30E94B90488E390E028E330E0FE
:100BC000F9012081277FFC01208381E090E00E94D1
:100BD000B90488E390E028E330E0F901208128603F
:100BE000FC01208360E070E080E09FE30E94B90494
:100BF00089E390E0FC01808182958F708A838A81ED
:100C00008F708A8399818A81892B898389818078F1
:100C10008B8360E070E080E09FE30E94B90488E38A
:100C200090E028E330E0F9012081277FFC01208358
:100C300081E090E00E94B9048B81882309F09CCF69
:100C400088E390E028E330E0F90120812B7FFC016C
:100C500020838AE390E02AE330E0F9012081206FCD
:100C6000FC01208300000F900F900F90DF91CF9137
:100C70000895CF93DF931F92CDB7DEB789838EE1BE
:100C800090E00E9469048AE390E02AE330E0F901F1
:100C90002081206FFC01208387E390E027E330E090
:100CA000F90120812860FC01208387E390E027E39D
:100CB00030E0F90120812260FC01208387E390E08D
:100CC00027E330E0F90120812460FC0120838BE3DD
:100CD00090E02BE330E0F90120812F70FC012083AC
:100CE00088E390E028E330E0F9012081277FFC01D0
:100CF000208388E390E028E330E0F90120812B7F16
:100D0000FC01208388E390E028E330E0F9012081B2
:100D10002D7FFC0120836AE979E989E99EE30E943D
:100D2000B90488E390E028E330E0F90120812860ED
:100D3000FC0120838BE390E02BE330E0F90120817C
:100D40002062FC01208381E090E00E94B90488E3E6
:100D500090E028E330E0F9012081277FFC01208327
:100D600081E090E00E94B9040E94940589818C6022
:100D700060E00E94FF0460E088E20E94FF0460E0FF
:100D800080E00E94A00700000F90DF91CF910895AE
:100D9000CF93DF9300D01F92CDB7DEB79B838A83BA
:100DA00034C08A819B81FC018081853211F58A8162
:100DB0009B8101969B838A838A819B81FC01808130
:100DC000805389838981882344F0898188302CF479
:100DD000898161E00E94FF0413C061E085E20E9406
:100DE000FF048A819B81FC01808161E00E94FF04F5
:100DF00007C08A819B81FC01808161E00E94FF0421
:100E00008A819B8101969B838A838A819B81FC01D5
:100E10008081882331F600000F900F900F90DF91B2
:100E2000CF910895CF93DF93CDB7DEB72D970FB64F
:100E3000F894DEBF0FBECDBF9B878A877D876C8706
:100E400025E0CE010596FC01322F11923A95E9F783
:100E500084E090E09A8389831C821B8220C08A856B
:100E60009B852AE030E0B9010E946F08482F9E015F
:100E70002B5F3F4F89819A81820F931FFC01408332
:100E80008A859B852AE030E0B9010E946F08CB017A
:100E90009B878A8789819A8101979A8389838A852A
:100EA0009B85892BE1F68C859D85019691F405C083
:100EB0008B819C8101969C838B839E012B5F3F4F8E
:100EC0008B819C81820F931FFC018081882381F399
:100ED0000AC025E030E08C859D85A901481B590B8F
:100EE000CA019C838B838A859B85992324F461E0C6
:100EF0008DE20E94FF048B819C819A83898312C0BA
:100F00009E012B5F3F4F89819A81820F931FFC01C5
:100F10008081805D61E00E94FF0489819A81019651
:100F20009A83898389819A81059754F300002D96CD
:100F30000FB6F894DEBF0FBECDBFDF91CF910895FD
:100F4000CF93DF9300D0CDB7DEB789836A838981E1
:100F50008431A0F48A81882F90E0009731F00197C6
:100F600029F489818064898301C0000089818068B7
:100F7000898360E089810E94FF0401C000000F9016
:100F80000F90DF91CF910895CF93DF9300D000D0E1
:100F9000CDB7DEB78A836B834C836B818A810E94D5
:100FA000A00780E389838C8182958F70882F90E0E1
:100FB0008F7099270A9734F48C8182958F70805DA9
:100FC000898305C08C8182958F70895C898361E0FB
:100FD00089810E94FF040E9494058C81882F90E0F3
:100FE0008F7099270A972CF48C818F70805D89838C
:100FF00004C08C818F70895C898361E089810E9443
:10100000FF040E94940500000F900F900F900F9026
:10101000DF91CF910895CF93DF931F92CDB7DEB7C5
:1010200089838981082E000C990B8D34910521F05C
:1010300083359105C9F030C087E390E027E330E0C5
:10104000F9012081206BFC01208387E390E027E3F6
:1010500030E0F90120812F7BFC0120838DE290E0BC
:1010600020E5FC01208318C087E390E027E330E00F
:10107000F90120812F7DFC01208387E390E027E3A5
:1010800030E0F90120812064FC0120838DE290E0B2
:1010900020E4FC012083000000000F90DF91CF913D
:1010A0000895CF93DF9300D0CDB7DEB79A838983BD
:1010B0008FE290E02981FC01208300008EE290E025
:1010C000FC0180818823D4F78FE290E0FC018081CD
:1010D000882F90E00F900F90DF91CF91089597FBAC
:1010E000072E16F4009407D077FD09D00E948308DC
:1010F00007FC05D03EF4909581959F4F089570951B
:1011000061957F4F0895AA1BBB1B51E107C0AA1F21
:10111000BB1FA617B70710F0A61BB70B881F991F98
:101120005A95A9F780959095BC01CD0108950E942C
:10113000CE0888F09F5798F0B92F9927B751B0F093
:10114000E1F0660F771F881F991F1AF0BA95C9F74B
:1011500014C0B13091F00E94E808B1E008950C94F9
:10116000E808672F782F8827B85F39F0B93FCCF3AC
:10117000869577956795B395D9F73EF490958095C8
:10118000709561957F4F8F4F9F4F089557FD9058F1
:10119000440F551F59F05F3F71F04795880F97FB3B
:1011A000991F61F09F3F79F08795089512161306F5
:1011B0001406551FF2CF4695F1DF08C01616170624
:1011C0001806991FF1CF8695710561050894089559
:1011D000E894BB2766277727CB0197F908950E94EB
:1011E00002090C9473090E94650938F00E946C0989
:1011F00020F0952311F00C945C090C9462091124E1
:101200000C94E9080E94C60870F3959FC1F3950FEE
:1012100050E0551F629FF001729FBB27F00DB11D7A
:10122000639FAA27F00DB11DAA1F649F6627B00D0A
:10123000A11D661F829F2227B00DA11D621F739FF3
:10124000B00DA11D621F839FA00D611D221F749F01
:101250003327A00D611D231F849F600D211D822F48
:10126000762F6A2F11249F5750409AF0F1F088236F
:101270004AF0EE0FFF1FBB1F661F771F881F91509C
:101280005040A9F79E3F510580F00C945C090C94E6
:10129000E9085F3FE4F3983ED4F386957795679528
:1012A000B795F795E7959F5FC1F7FE2B880F911DC6
:1012B0009695879597F9089597F99F6780E870E06C
:1012C00060E008959FEF80EC089500240A941616BC
:1012D000170618060906089500240A941216130624
:1012E000140605060895092E0394000C11F48823B2
:1012F00052F0BB0F40F4BF2B11F460FF04C06F5FCE
:101300007F4F8F4F9F4F08954532510520F4423053
:1013100010F00C948F09FB011082CB010895BB27BC
:101320004A3031F4992322F4BDE2909581959F4F84
:101330000C949B09BB27FB015527AA27880F991FEF
:10134000AA1FA41710F0A41B83955051B9F7A05DF4
:10135000AA3308F0A95DA193009779F7B111B19371
:101360001192CB010C94B409DC01FC01672F71913F
:101370007723E1F7329704C07C916D93708362917B
:0C138000AE17BF07C8F30895F894FFCF24
:10138C0000008041524649442052656164657200F8
:10139C00312E302E30004D494641524520524335B6
:1013AC0032327632004465746563746564004D496D
:1013BC00464152452052433532327631004E6F2031
:1013CC0072656164657220666F756E640045727239
:0413DC006F7200002C
:00000001FF
