:100000000C942A000C943C000C943C000C943C0092
:100010000C943C000C943C000C943C000C943C0070
:100020000C943C000C943C000C943C000C943C0060
:100030000C943C000C943C000C943C000C943C0050
:100040000C943C000C943C000C943C000C943C0040
:100050000C943C0011241FBECFE5D4E0DEBFCDBF21
:1000600020E0A0E6B0E001C01D92A436B207E1F79F
:100070000E943E000C94BF010C940000CF93DF93CC
:10008000CDB7DEB780E090E0A0E8BFE380936000EA
:1000900090936100A0936200B093630081E390E0CD
:1000A0002FEFFC01208382E390E022E330E0F901AE
:1000B00020812095FC01208384E690E00E9482004C
:1000C000F2CFCF93DF93CDB7DEB782E590E0FC01AE
:1000D000108283E590E021E0FC012083000088E5A8
:1000E00090E0FC0180818130D1F383E590E0FC0158
:1000F000108288E590E021E0FC0120830000DF9180
:10010000CF910895CF93DF93CDB7DEB72A970FB67F
:10011000F894DEBF0FBECDBF9A8789871A821982F5
:100120008091600090916100A0916200B0916300A5
:100130008B839C83AD83BE8320E030E04AE754E4A8
:100140006B817C818D819E810E942A01DC01CB0123
:10015000BC01CD010E94D200DC01CB0198878F83C6
:1001600007C089819A8101969A8389830E946100E0
:1001700049855A858F819885489F9001499F300D08
:10018000589F300D112489819A818217930748F373
:1001900000002A960FB6F894DEBF0FBECDBFDF91E8
:1001A000CF9108950E94090188F09F5798F0B92FC8
:1001B0009927B751B0F0E1F0660F771F881F991F9C
:1001C0001AF0BA95C9F714C0B13091F00E9423011A
:1001D000B1E008950C942301672F782F8827B85F2A
:1001E00039F0B93FCCF3869577956795B395D9F7F4
:1001F0003EF490958095709561957F4F8F4F9F4FFE
:10020000089557FD9058440F551F59F05F3F71F006
:100210004795880F97FB991F61F09F3F79F087956D
:100220000895121613061406551FF2CF4695F1DFF6
:1002300008C0161617061806991FF1CF8695710586
:10024000610508940895E894BB2766277727CB01BA
:1002500097F908950E943D010C94AE010E94A001FF
:1002600038F00E94A70120F0952311F00C9497011B
:100270000C949D0111240C9424010E94010170F33F
:10028000959FC1F3950F50E0551F629FF001729F3B
:10029000BB27F00DB11D639FAA27F00DB11DAA1F4A
:1002A000649F6627B00DA11D661F829F2227B00D97
:1002B000A11D621F739FB00DA11D621F839FA00D22
:1002C000611D221F749F3327A00D611D231F849F72
:1002D000600D211D822F762F6A2F11249F575040C9
:1002E0009AF0F1F088234AF0EE0FFF1FBB1F661F44
:1002F000771F881F91505040A9F79E3F510580F00D
:100300000C9497010C9424015F3FE4F3983ED4F3DE
:10031000869577956795B795F795E7959F5FC1F7B0
:10032000FE2B880F911D9695879597F9089597F95B
:100330009F6780E870E060E008959FEF80EC08958B
:1003400000240A94161617061806090608950024B4
:100350000A9412161306140605060895092E03942E
:10036000000C11F4882352F0BB0F40F4BF2B11F4A2
:1003700060FF04C06F5F7F4F8F4F9F4F0895F894C9
:02038000FFCFAD
:00000001FF
