:100000000C942A000C943F000C943F000C943F0089
:100010000C943F000C943F000C943F000C943F0064
:100020000C943F000C943F000C943F000C943F0054
:100030000C943F000C943F000C943F000C943F0044
:100040000C943F000C943F000C943F000C943F0034
:100050000C943F0011241FBECFE5D4E0DEBFCDBF1E
:1000600010E0A0E6B0E0ECE7F6E002C005900D92EB
:10007000A037B107D9F70E94C3010C943C030C943C
:10008000000088E08AB986E880BD83E389B90895D5
:100090005D9BFECF8CB90895CF93C82F82958F704A
:1000A000805D0E9448008C2F8F70805DCF910C94F2
:1000B000480011B887E480B984E086BF089584EAD7
:1000C00086BF06B607FEFDCF089583B984E886BFD4
:1000D00006B607FEFDCF81B1089520E4829FC001DE
:1000E0001124846886BF06B607FEFDCF83B108954C
:1000F00084E986BF08950E9459000E945F0080ED48
:100100000E94650080E00E94650087E00E94650013
:1001100080E00E94650084E986BF08951F93CF9315
:10012000DF93C82FD62F142F0E945F0080ED0E940E
:10013000650080E00E946500812F0E9465008D2F80
:100140000E9465008C2F0E94650084E986BFDF91C4
:10015000CF911F9108951F93CF93DF93C82FD62F70
:10016000142F0E945F0080ED0E94650084E00E94D1
:100170006500812F0E9465008D2F0E9465008C2FE5
:100180000E94650084E986BFDF91CF911F91089599
:10019000CF92DF92EF92FF920F931F93CF938C0138
:1001A0007B016A010E945F0080ED0E94650080E093
:1001B0000E946500C4E9C6BF0E945F0081ED0E94F5
:1001C000650081E00E946D00F601808381E00E945D
:1001D0006D00F701808380E00E946D00F80180834C
:1001E000C6BFCF911F910F91FF90EF90DF90CF90FE
:1001F0000895CF92DF92EF92FF920F931F93CF93C8
:100200008C017B016A010E945F0081ED0E94650004
:1002100080E00E946500C4E9C6BF0E945F0081EDD6
:100220000E94650081E00E946D00F601808381E0FC
:100230000E946D00F701808380E00E946D00F8014C
:100240008083C6BFCF911F910F91FF90EF90DF90F9
:10025000CF9008958BBB18BA18BA84E088BB8AE0A7
:1002600090E00E94750118BA0895CF938BBBC1E04E
:10027000C8BBC8BB85E088BB84E190E00E947501E3
:10028000C8BBCF91089588E30E942A018EE00E94A6
:100290002A0181E00E942A0186E00E942A0180E86A
:1002A0000C942A01CF93DF93EC018991882319F0F4
:1002B0000E943501FACFDF91CF91089581309105E9
:1002C00011F480E803C0029721F480EC860F0C94AF
:1002D0002A01089582EF82BF81E083BF88B7813011
:1002E000E9F313BE81E088BF08950F931F93CF9366
:1002F000DF93EC0120E030E04AE754E460916000D5
:100300007091610080916200909163000E94A70249
:100310000E944F02C69F8001C79F100DD69F100DEF
:100320001124C0E0D0E0C017D10721F021960E942F
:100330006A01F9CFDF91CF911F910F9108950F932B
:100340001F93CF93DF93EC01609160007091610087
:1003500080916200909163000E944F02C69F8001CD
:10036000C79F100DD69F100D1124C0E0D0E0C0171C
:10037000D10721F021960E946A01F9CFDF91CF9138
:100380001F910F910895CF93DF9300D000D000D03C
:10039000CDB7DEB78FEF8ABB87BB0E947B000E9480
:1003A00041000E94430184E690E00E94520180ECEB
:1003B0000E942A018AE690E00E94520186E80E948B
:1003C0002A01AE014C5F5F4FBE016B5F7F4FCE01D4
:1003D00006960E94C8008E8182958F70805D0E9473
:1003E00035018E818F70805D0E9435018AE30E9405
:1003F00035018D8182958F70805D0E9435018D81E0
:100400008F70805D0E9435018AE30E9435018C81E6
:1004100082958F70805D0E9435018C818F70805D28
:100420000E94350182E390E00E94750186EC0E94F3
:100430002A01AE014F5F5F4FBE016E5F7F4FCE015D
:1004400003960E94F900898182958F70805D0E94D9
:10045000350189818F70805D0E9435018DE20E9497
:1004600035018A8182958F70805D0E9435018A8175
:100470008F70805D0E9435018DE20E9435018B8175
:1004800082958F70805D0E9435018B818F70805DB9
:100490000E94350184EF91E00E9475018FCF0E9488
:1004A000860288F09F5798F0B92F9927B751B0F07E
:1004B000E1F0660F771F881F991F1AF0BA95C9F7E8
:1004C00014C0B13091F00E94A002B1E008950C94E4
:1004D000A002672F782F8827B85F39F0B93FCCF397
:1004E000869577956795B395D9F73EF49095809565
:1004F000709561957F4F8F4F9F4F089557FD90588E
:10050000440F551F59F05F3F71F04795880F97FBD7
:10051000991F61F09F3F79F0879508951216130691
:100520001406551FF2CF4695F1DF08C016161706C0
:100530001806991FF1CF86957105610508940895F5
:10054000E894BB2766277727CB0197F908950E9487
:10055000BA020C942B030E941D0338F00E9424035E
:1005600020F0952311F00C9414030C941A03112419
:100570000C94A1020E947E0270F3959FC1F3950F27
:1005800050E0551F629FF001729FBB27F00DB11D17
:10059000639FAA27F00DB11DAA1F649F6627B00DA7
:1005A000A11D661F829F2227B00DA11D621F739F90
:1005B000B00DA11D621F839FA00D611D221F749F9E
:1005C0003327A00D611D231F849F600D211D822FE5
:1005D000762F6A2F11249F5750409AF0F1F088230C
:1005E0004AF0EE0FFF1FBB1F661F771F881F915039
:1005F0005040A9F79E3F510580F00C9414030C94D1
:10060000A1025F3FE4F3983ED4F386957795679512
:10061000B795F795E7959F5FC1F7FE2B880F911D62
:100620009695879597F9089597F99F6780E870E008
:1006300060E008959FEF80EC089500240A94161658
:10064000170618060906089500240A9412161306C0
:10065000140605060895092E0394000C11F488234E
:1006600052F0BB0F40F4BF2B11F460FF04C06F5F6A
:0C0670007F4F8F4F9F4F0895F894FFCFED
:10067C000000803F54494D45200044415445200022
:00000001FF
