:100000000C9433010C9450010C9450010C94500149
:100010000C9450010C9450010C9450010C9450011C
:100020000C9450010C9450010C9450010C9450010C
:100030000C9450010C9450010C9450010C945001FC
:100040000C9450010C9450010C9450010C945001EC
:100050000C9450011200AE01A83F012000022100C3
:100060007F02220007004001D30000A100C801DA8E
:100070001201817F00A400A601D58001D9C201DB55
:1000800020018D1400AF00000000008181188181E3
:100090000007000700147F147F14242A7F2A1223EC
:1000A0001308646236495522500005030000001C05
:1000B0002241000041221C0014083E081408083E9A
:1000C00008080050300000080808080800606000B8
:1000D0000020100804023E5149453E00427F400086
:1000E00042615149462141454B311814127F102776
:1000F000454545393C4A49493001710905033649AE
:10010000494936064949291E003636000000563650
:100110000000081422410014141414140041221485
:10012000080201510906324979413E7E1111117EC2
:100130007F494949363E414141227F4141221C7F4E
:10014000494949417F090909013E4149497A7F08E6
:1001500008087F00417F41002040413F017F081493
:1001600022417F404040407F020C027F7F04081004
:100170007F3E4141413E7F090909063E4151215ED2
:100180007F09192946464949493101017F01013F4B
:100190004040403F1F2040201F3F4038403F6314F5
:1001A00008146307087008076151494543007F41FF
:1001B000410002040810200041417F0004020102B6
:1001C0000440404040400001020400205454547850
:1001D0007F484444383844444420384444487F38B5
:1001E00054545418087E0901020C5252523E7F08A2
:1001F00004047800447D40002040443D007F1028E6
:10020000440000417F40007C041804787C0804040A
:100210007838444444387C14141408081414147CAA
:100220007C080404084854545420043F4440203CB3
:100230004040207C1C2040201C3C4030403C442856
:100240001028440C5050503C4464544C4400083630
:10025000410000007F00000041360800100808102F
:1002600008000000000011241FBECFE5D4E0DEBF6F
:10027000CDBF10E0A0E6B0E0EAE3FFE002C00590E9
:100280000D92AA38B107D9F724E0AAE8B0E001C07E
:100290001D92AC38B207E1F70E9452010C949B0703
:1002A0000C940000CF93DF931F92CDB7DEB78CE3A1
:1002B000898389810E948B010E94D50224E044E059
:1002C0006FE780E00E94210461E087E00E94E50280
:1002D00084E690E00E94980322E142E16FE780E02B
:1002E0000E94210463E088E20E94E50288E790E032
:1002F0000E94980365E085E30E94E50284E890E0AF
:100300000E94980389810E94960280E090E00F90FD
:10031000DF91CF910895CF93DF93CDB7DEB7649788
:100320000FB6F894DEBF0FBECDBF8C8B84E590E096
:100330009A83898389819A819C012F5F3F4F3A83F9
:1003400029839F838E838E819F81FC01849188877E
:100350008885882F90E09C838B838FEF89870E940C
:10036000FD048C890E94170289878985882309F4F6
:100370004DC0898553C089819A819C012F5F3F4F71
:100380003A8329839B878A878A859B85FC01849190
:100390008C878C858D8389819A819C012F5F3F4F4B
:1003A0003A8329839E878D878D859E85FC01849164
:1003B0008F878F85888B88890E94360289878985F7
:1003C0008823C9F089852AC089819A819C012F5F81
:1003D0003F4F3A8329839A8B898B89899A89FC01BB
:1003E00084918B8B8B890E9436028987898588232B
:1003F00011F0898513C08D819FEF980F9D8388230D
:1004000019F78B819C8101979C838B838B819C81C5
:10041000892B09F0B0CF0E94E20580E064960FB608
:10042000F894DEBF0FBECDBFDF91CF910895CF937B
:10043000DF9300D0CDB7DEB78A838FEF89830E9428
:100440001F0589838981882311F089810AC08A81E7
:100450000E94560589838981882311F0898101C012
:1004600080E00F900F90DF91CF910895CF93DF93AD
:1004700000D0CDB7DEB78A838FEF898380E80E94F2
:10048000830589838981882311F089810AC08A8143
:100490000E94830589838981882311F0898101C0A5
:1004A00080E00F900F90DF91CF910895CF93DF936D
:1004B00000D0CDB7DEB78A838FEF89838A810E940F
:1004C000170289838981882311F089810AC086EA0D
:1004D0000E94360289838981882311F0898101C0B5
:1004E00080E00F900F90DF91CF910895CF93DF932D
:1004F00000D0CDB7DEB78A838FEF89838A810E94CF
:10050000170289838981882311F089810AC087EACB
:100510000E94360289838981882311F0898101C074
:1005200080E00F900F90DF91CF910895CF93DF93EC
:1005300000D000D0CDB7DEB78C838FEF8B831A82CB
:1005400019828C810E9417028B838B81882311F082
:100550008B8124C080E40E9483058B838B81882358
:10056000A9F08B811BC089819A8186579F4FFC011E
:1005700080810E9483058B838B81882311F08B817E
:100580000DC089819A8101969A83898389819A8194
:100590008115944040F30E94E20580E00F900F9097
:1005A0000F900F90DF91CF910895CF93DF93CDB748
:1005B000DEB740E054E060E070E08AE890E00E943E
:1005C00094070000DF91CF910895CF93DF9300D07F
:1005D000CDB7DEB789836A838981282F30E08A818D
:1005E000882F90E09695982F882797958795820F6A
:1005F000931F90938B0480938A0400000F900F90B8
:10060000DF91CF910895CF93DF9300D01F92CDB7A4
:10061000DEB780918A0490918B04880F892F881F00
:10062000990B9195898380918A0490918B04982FDE
:100630008981879588278795292F281B822F8A8370
:100640008A818A5F8B838B818823BCF4898188307F
:1006500010F081E013C08981863078F489818F5F42
:1006600089838981882F90E09695982F8827979580
:10067000879590938B0480938A0480E00F900F906D
:100680000F90DF91CF910895CF93DF9300D000D0EA
:100690001F92CDB7DEB78D8319820E94030381308C
:1006A00091F581E03DC020918A0430918B04C9010D
:1006B000019690938B0480938A048D81082E000C00
:1006C000990BAC0140525109898191E0980F9983AF
:1006D000682F70E0CA01880F991F880F991F840F37
:1006E000951F860F971F8A579F4F9B838A838A8106
:1006F0009B81FC0184918C838C81482FC901865792
:100700009F4FFC0140838981853068F280918A0483
:1007100090918B04019690938B0480938A0480E0DF
:100720000F900F900F900F900F90DF91CF91089541
:10073000CF93DF9300D000D0CDB7DEB79C838B83FF
:100740001A82198210C089819A819C012F5F3F4FC4
:100750003A8329839C018B819C81820F931FFC012A
:1007600080810E94440389819A812B813C81820F80
:10077000931FFC018081882331F700000F900F90B8
:100780000F900F90DF91CF910895CF93DF9300D01A
:1007900000D0CDB7DEB78B836C8319821A828B8130
:1007A00088232CF48C81813410F081E043C08C814B
:1007B00086958695869589838C81282F30E089815E
:1007C000882F90E0880F991F880F991F880F991F15
:1007D000281B390B81E090E002C0880F991F2A95F1
:1007E000E2F78A838B81282F30E08981882F90E07F
:1007F0009695982F882797958795820F931F9093AA
:100800008B0480938A0480918A0490918B049C01CC
:100810002F5F3F4F30938B0420938A049C0126570F
:100820003F4FF90130812A81232B86579F4FFC01CE
:10083000208380E00F900F900F900F90DF91CF9169
:100840000895CF93DF93CDB7DEB72E970FB6F89408
:10085000DEBF0FBECDBF8B876C874D872E8781E0B3
:1008600090E098878F8381E090E09A8789878C85D4
:10087000282F30E08B85882F90E0A901481B590B69
:10088000CA019C838B838E85282F30E08D85882F2D
:1008900090E0A901481B590BCA019E838D838B816F
:1008A0009C81992374F48B819C8191958195910908
:1008B0009C838B838F8198859195819591099887E9
:1008C0008F838D819E81992374F48D819E81919572
:1008D000819591099E838D8389859A8591958195CE
:1008E00091099A8789872D813E818B819C81281768
:1008F0003907ECF58D819E819C01220F331F8B817E
:100900009C81A901481B590BCA019A8389836D8573
:100910008B850E94C50326C08F819B85890F8B879D
:1009200089819A81992384F089859D85890F8D8796
:100930008B819C81880F991F29813A81A901481BCD
:10094000590BCA019A8389838D819E81880F991FD3
:1009500029813A81820F931F9A8389836D858B85C4
:100960000E94C5039B858C859817B1F63CC08B818E
:100970009C81880F991F2D813E81A901481B590B2D
:10098000CA019A8389836D858B850E94C50327C020
:1009900089859D85890F8D8789819A811816190609
:1009A00074F08F819B85890F8B878D819E81880F45
:1009B000991F29813A81820F931F9A8389838B81A2
:1009C0009C81880F991F29813A81A901481B590BE5
:1009D000CA019A8389836D858B850E94C5039D8595
:1009E0008E859817A9F680E02E960FB6F894DEBF94
:1009F0000FBECDBFDF91CF910895CF93DF93CDB7D9
:100A0000DEB780E290E023E0FC01208381E290E009
:100A1000FC018081882F90E082709927AC014160B1
:100A200081E290E021E230E0F9012081322F242F91
:100A3000232BFC0120830000DF91CF910895CF93F9
:100A4000DF93CDB7DEB781E290E021E230E0F9013B
:100A500020812775FC01208386E590E024EAFC01D3
:100A60002083000086E590E0FC0180818823D4F794
:100A700081E290E0FC018081882F90E0887F9927B7
:100A8000089781F081E290E0FC018081882F90E05E
:100A9000887F9927409731F081E290E0FC018081C6
:100AA000887F01C080E0DF91CF910895CF93DF93DD
:100AB0001F92CDB7DEB7898383E290E02981220FB0
:100AC000FC01208386E590E024E8FC0120830000FF
:100AD00086E590E0FC0180818823D4F781E290E0F4
:100AE000FC018081882F90E0887F9927489731F01A
:100AF00081E290E0FC018081887F01C080E00F905E
:100B0000DF91CF910895CF93DF931F92CDB7DEB7DA
:100B1000898383E290E02981FC01208386E590E0CF
:100B200024E8FC012083000086E590E0FC01808140
:100B30008823D4F781E290E0FC018081882F90E047
:100B4000887F9927889731F081E290E0FC018081CD
:100B5000887F01C080E00F90DF91CF910895CF93FF
:100B6000DF931F92CDB7DEB7898383E290E02981BE
:100B7000022E000C330B220F331F2160FC01208357
:100B800086E590E024E8FC012083000086E590E003
:100B9000FC0180818823D4F781E290E0FC01808110
:100BA000882F90E0887F99278034910531F081E289
:100BB00090E0FC018081887F01C080E00F90DF9190
:100BC000CF910895CF93DF93CDB7DEB786E590E060
:100BD00024E9FC0120830000DF91CF910895CF9399
:100BE000DF93CDB7DEB782E590E022EFFC012083F2
:100BF00083E590E021E0FC012083000088E590E09F
:100C0000FC0180818130D1F383E590E0FC0110820A
:100C100088E590E021E0FC0120830000DF91CF9186
:100C20000895CF93DF93CDB7DEB72A970FB6F89428
:100C3000DEBF0FBECDBF9A8789871A821982809145
:100C4000600090916100A0916200B09163008B837D
:100C50009C83AD83BE8320E030E04AE754E46B819F
:100C60007C818D819E810E94FF06DC01CB01BC014D
:100C7000CD010E94A706DC01CB0198878F8307C0B6
:100C800089819A8101969A8389830E94EF0549851B
:100C90005A858F819885489F9001499F300D589FB4
:100CA000300D112489819A818217930748F300003F
:100CB0002A960FB6F894DEBF0FBECDBFDF91CF915D
:100CC0000895CF93DF93CDB7DEB72A970FB6F89488
:100CD000DEBF0FBECDBF9A8789871A8219828091A5
:100CE000600090916100A0916200B09163008B83DD
:100CF0009C83AD83BE836B817C818D819E810E94AC
:100D0000A706DC01CB0198878F8307C089819A8170
:100D100001969A8389830E94EF0549855A858F81C0
:100D20009885489F9001499F300D589F300D1124A0
:100D300089819A818217930748F300002A960FB69B
:100D4000F894DEBF0FBECDBFDF91CF9108950E9412
:100D5000DE0688F09F5798F0B92F9927B751B0F069
:100D6000E1F0660F771F881F991F1AF0BA95C9F72F
:100D700014C0B13091F00E94F806B1E008950C94CF
:100D8000F806672F782F8827B85F39F0B93FCCF382
:100D9000869577956795B395D9F73EF490958095AC
:100DA000709561957F4F8F4F9F4F089557FD9058D5
:100DB000440F551F59F05F3F71F04795880F97FB1F
:100DC000991F61F09F3F79F08795089512161306D9
:100DD0001406551FF2CF4695F1DF08C01616170608
:100DE0001806991FF1CF869571056105089408953D
:100DF000E894BB2766277727CB0197F908950E94CF
:100E000012070C9483070E94750738F00E947C0734
:100E100020F0952311F00C946C070C9472071124A8
:100E20000C94F9060E94D60670F3959FC1F3950FB6
:100E300050E0551F629FF001729FBB27F00DB11D5E
:100E4000639FAA27F00DB11DAA1F649F6627B00DEE
:100E5000A11D661F829F2227B00DA11D621F739FD7
:100E6000B00DA11D621F839FA00D611D221F749FE5
:100E70003327A00D611D231F849F600D211D822F2C
:100E8000762F6A2F11249F5750409AF0F1F0882353
:100E90004AF0EE0FFF1FBB1F661F771F881F915080
:100EA0005040A9F79E3F510580F00C946C070C94BC
:100EB000F9065F3FE4F3983ED4F3869577956795FE
:100EC000B795F795E7959F5FC1F7FE2B880F911DAA
:100ED0009695879597F9089597F99F6780E870E050
:100EE00060E008959FEF80EC089500240A941616A0
:100EF000170618060906089500240A941216130608
:100F0000140605060895092E0394000C11F4882395
:100F100052F0BB0F40F4BF2B11F460FF04C06F5FB1
:100F20007F4F8F4F9F4F0895DC0101C06D9341505B
:0A0F30005040E0F70895F894FFCF59
:100F3A000000803F53534431333036204F4C4544F0
:100F4A00204452495645520048656C6C6F20496CE2
:0A0F5A0068616D0032303232000091
:00000001FF
