:100000000C942A000C943F000C943F000C943F0089
:100010000C943F000C943F000C943F000C943F0064
:100020000C943F000C943F000C943F000C943F0054
:100030000C943F000C943F000C943F000C943F0044
:100040000C943F000C943F000C943F000C943F0034
:100050000C943F0011241FBECFE5D4E0DEBFCDBF1E
:1000600010E0A0E6B0E0E0E4FDE002C005900D92F3
:10007000AA38B107D9F70E9441000C949E060C944F
:100080000000CF93DF9300D000D000D0CDB7DEB713
:100090000E94E3000E94480244E650E060E081E0F4
:1000A0000E94380141E750E060E082E00E943801A0
:1000B0000E94B50289838981882F90E0292F2F9390
:1000C0008F9383E890E0892F8F9383E890E08F935C
:1000D000CE010296292F2F938F930E94B4030F9085
:1000E0000F900F900F900F900F90CE010296AC01E1
:1000F0006DE082E00E943801DBCFCF93DF931F9247
:10010000CDB7DEB7898382E390E02981FC012083AB
:1001100085E390E025E330E0F9012081277EFC01B2
:10012000208385E390E025E330E0F901208124601D
:10013000FC01208381E090E00E94D10185E390E002
:1001400025E330E0F90120812B7FFC01208383E04F
:1001500090E00E94810100000F90DF91CF910895FF
:10016000CF93DF931F92CDB7DEB7898382E390E010
:100170002981FC01208385E390E025E330E0F9014B
:100180002081277FFC01208385E390E025E330E098
:10019000F90120812461FC01208381E090E00E942C
:1001A000D10185E390E025E330E0F90120812B7F48
:1001B000FC01208381E090E00E94810100000F900B
:1001C000DF91CF910895CF93DF93CDB7DEB784E36E
:1001D00090E024E330E0F90120812C61FC012083D0
:1001E00081E390E02FEFFC01208384E190E00E9406
:1001F000810188E30E947D008CE00E947D0086E002
:100200000E947D0081E00E947D0080E80E947D00C8
:100210000000DF91CF910895CF93DF9300D000D0FD
:10022000CDB7DEB79C838B831A8219820FC0898178
:100230009A812B813C81820F931FFC0180810E9457
:10024000B00089819A8101969A83898389819A81F4
:100250002B813C81820F931FFC018081882339F719
:1002600000000F900F900F900F90DF91CF910895A5
:10027000CF93DF9300D000D0CDB7DEB789836A83F8
:100280005C834B838981813031F48A818F708068EF
:100290000E947D0008C08981823029F48A818F7094
:1002A000806C0E947D008B819C810E940C0100006B
:1002B0000F900F900F900F90DF91CF910895CF93F3
:1002C000DF93CDB7DEB782E590E022EFFC0120831B
:1002D00083E590E021E0FC012083000088E590E0C8
:1002E000FC0180818130D1F383E590E0FC01108234
:1002F00088E590E021E0FC0120830000DF91CF91B0
:100300000895CF93DF93CDB7DEB72A970FB6F89451
:10031000DEBF0FBECDBF9A8789871A82198280916E
:10032000600090916100A0916200B09163008B83A6
:100330009C83AD83BE8320E030E04AE754E46B81C8
:100340007C818D819E810E941F03DC01CB01BC0159
:10035000CD010E94C702DC01CB0198878F8307C0C3
:1003600089819A8101969A8389830E945F014985D8
:100370005A858F819885489F9001499F300D589FDD
:10038000300D112489819A818217930748F3000068
:100390002A960FB6F894DEBF0FBECDBFDF91CF9186
:1003A0000895CF93DF93CDB7DEB72A970FB6F894B1
:1003B000DEBF0FBECDBF9A8789871A8219828091CE
:1003C000600090916100A0916200B09163008B8306
:1003D0009C83AD83BE836B817C818D819E810E94D5
:1003E000C702DC01CB0198878F8307C089819A817E
:1003F00001969A8389830E945F0149855A858F817E
:100400009885489F9001499F300D589F300D1124C9
:1004100089819A818217930748F300002A960FB6C4
:10042000F894DEBF0FBECDBFDF91CF910895CF937B
:10043000DF93CDB7DEB787E390E027E330E0F90143
:100440002081206BFC01208387E390E027E330E0EC
:10045000F90120812F7BFC01208388E390E028E3D1
:1004600030E0F90120812061FC0120838DE290E0E1
:1004700021E5FC0120838EE290E02EE230E0F901DC
:1004800020812E7FFC0120830000DF91CF91089511
:10049000CF93DF93CDB7DEB787E390E027E330E07B
:1004A000F90120812F74FC01208387E390E027E38A
:1004B00030E0F90120812064FC0120838DE290E08E
:1004C00020E4FC0120830000DF91CF910895CF93B9
:1004D000DF9300D0CDB7DEB78A838FE290E02A8128
:1004E000FC01208300008EE290E0FC0180818823E3
:1004F000D4F78FE290E0FC018081898300000F90A7
:100500000F90DF91CF910895CF93DF93CDB7DEB7F2
:100510008FE290E02FEFFC01208300008EE290E05C
:10052000FC0180818823D4F78FE290E0FC01808178
:10053000DF91CF910895CF93DF931F92CDB7DEB7B0
:1005400089838FE290E02981FC01208300008EE204
:1005500090E0FC0180818823D4F78FE290E0FC01D9
:1005600080810F90DF91CF910895CF93DF93CDB726
:10057000DEB700008EE290E0FC0180818823D4F792
:100580008FE290E0FC018081DF91CF9108950E947D
:10059000FE0288F09F5798F0B92F9927B751B0F015
:1005A000E1F0660F771F881F991F1AF0BA95C9F7F7
:1005B00014C0B13091F00E941803B1E008950C947A
:1005C0001803672F782F8827B85F39F0B93FCCF32D
:1005D000869577956795B395D9F73EF49095809574
:1005E000709561957F4F8F4F9F4F089557FD90589D
:1005F000440F551F59F05F3F71F04795880F97FBE7
:10060000991F61F09F3F79F08795089512161306A0
:100610001406551FF2CF4695F1DF08C016161706CF
:100620001806991FF1CF8695710561050894089504
:10063000E894BB2766277727CB0197F908950E9496
:1006400032030C94A3030E94950338F00E949C038C
:1006500020F0952311F00C948C030C949203112438
:100660000C9419030E94F60270F3959FC1F3950F45
:1006700050E0551F629FF001729FBB27F00DB11D26
:10068000639FAA27F00DB11DAA1F649F6627B00DB6
:10069000A11D661F829F2227B00DA11D621F739F9F
:1006A000B00DA11D621F839FA00D611D221F749FAD
:1006B0003327A00D611D231F849F600D211D822FF4
:1006C000762F6A2F11249F5750409AF0F1F088231B
:1006D0004AF0EE0FFF1FBB1F661F771F881F915048
:1006E0005040A9F79E3F510580F00C948C030C9468
:1006F00019035F3FE4F3983ED4F3869577956795A9
:10070000B795F795E7959F5FC1F7FE2B880F911D71
:100710009695879597F9089597F99F6780E870E017
:1007200060E008959FEF80EC089500240A94161667
:10073000170618060906089500240A9412161306CF
:10074000140605060895092E0394000C11F488235D
:1007500052F0BB0F40F4BF2B11F460FF04C06F5F79
:100760007F4F8F4F9F4F0895AEE0B0E0EAEBF3E08C
:100770000C9475060D891E8986E08C831A83098383
:100780008FEF9FE79E838D83AE01475E5F4F6F893A
:10079000788DCE0101960E94D603EF81F885E00F97
:1007A000F11F10822E96E4E00C949106ABE0B0E0CD
:1007B000ECEDF3E00C9467066C017B018A01FC010F
:1007C00017821682838181FFCCC1CE0101963C0144
:1007D000F6019381F70193FD859193FF81917F014C
:1007E000882309F4BAC1853239F493FD859193FFCA
:1007F00081917F01853229F4B60190E00E94CD05F8
:10080000E7CF912C212C312CFFE1F315D8F08B325E
:1008100079F038F4803279F08332A1F4232D20610D
:100820001DC08D3261F0803369F4232D216016C024
:10083000832D8260382EE32DE4603E2E2AC0F32DF6
:10084000F8601DC037FC2DC020ED280F2A3040F085
:100850008E32B9F436FC81C1232D2064322E19C0AA
:1008600036FE06C08AE0989E200D1124922E11C0FB
:10087000EAE02E9E200D1124222EF32DF0623F2E51
:1008800008C08C3621F4832D8068382E02C088364B
:1008900041F4F70193FD859193FF81917F018111CF
:1008A000B3CF982F9F7D9554933028F40C5F1F4F42
:1008B0009FE399830DC0833631F0833771F0833520
:1008C00009F059C021C0F801808189830E5F1F4F54
:1008D00088248394912C530113C02801F2E04F0E19
:1008E000511CF801A080B18036FE03C0692D70E074
:1008F00002C06FEF7FEFC5010E94C2054C0182016B
:10090000F32DFF773F2E16C0280122E0420E511C26
:10091000F801A080B18036FE03C0692D70E002C0EE
:100920006FEF7FEFC5010E94B7054C01F32DF06812
:100930003F2E820133FC1BC0822D90E08816990661
:10094000B0F4B60180E290E00E94CD052A94F4CF85
:10095000F50137FC859137FE81915F01B60190E08A
:100960000E94CD0521102A9421E0821A9108811459
:10097000910471F7E8C0843611F0893641F5F80129
:1009800037FE07C060817181828193810C5F1F4FA8
:1009900008C060817181072E000C880B990B0E5FD7
:1009A0001F4FF32DFF763F2E97FF09C0909580953E
:1009B000709561957F4F8F4F9F4FF0683F2E2AE0D3
:1009C00030E0A3010E940906882E861845C08537AD
:1009D00031F4232D2F7EB22E2AE030E025C0932D56
:1009E000997FB92E8F36C1F018F4883579F0B5C0EB
:1009F000803719F0883721F0B0C0E92FE061BE2EB2
:100A0000B4FE0DC0FB2DF460BF2E09C034FE0AC039
:100A1000292F2660B22E06C028E030E005C020E174
:100A200030E002C020E132E0F801B7FE07C060818B
:100A30007181828193810C5F1F4F06C0608171813B
:100A400080E090E00E5F1F4FA3010E940906882EF0
:100A50008618FB2DFF773F2E36FE0DC0232D2E7FEF
:100A6000A22E891458F434FE0BC032FC09C0832D29
:100A70008E7EA82E05C0B82CA32C03C0B82C01C0B4
:100A8000B92CA4FE0FC0FE01E80DF11D808180335A
:100A900021F49A2D997EA92E09C0A2FE06C0B39416
:100AA000B39404C08A2D867809F0B394A3FC11C0D6
:100AB000A0FE06C0B21488F4280C922C9B180EC01D
:100AC000B21460F4B60180E290E00E94CD05B394C8
:100AD000F7CFB21418F42B1802C0982C212CA4FEC6
:100AE00010C0B60180E390E00E94CD05A2FE17C0C1
:100AF000A1FC03C088E790E002C088E590E0B60161
:100B00000CC08A2D867859F0A1FE02C08BE201C08C
:100B100080E2A7FC8DE2B60190E00E94CD05891429
:100B200038F4B60180E390E00E94CD059A94F7CFA7
:100B30008A94F301E80DF11D8081B60190E00E94D6
:100B4000CD058110F5CF222009F442CEB60180E216
:100B500090E00E94CD052A94F6CFF6018681978118
:100B600002C08FEF9FEF2B96E2E10C948306FC010D
:100B70000590615070400110D8F7809590958E0FC8
:100B80009F1F0895FC016150704001900110D8F73B
:100B9000809590958E0F9F1F08950F931F93CF936D
:100BA000DF93FB01238121FD03C08FEF9FEF2CC05A
:100BB00022FF16C046815781248135814217530791
:100BC00044F4A081B1819D012F5F3F4F3183208389
:100BD0008C93268137812F5F3F4F3783268314C044
:100BE0008B01EC01FB010084F185E02D0995892B37
:100BF000E1F6D80116968D919C911797019617965C
:100C00009C938E931697CE01DF91CF911F910F91F8
:100C10000895FA01AA27283051F1203181F1E89492
:100C20006F936E7F6E5F7F4F8F4F9F4FAF4FB1E0DF
:100C30003ED0B4E03CD0670F781F891F9A1FA11DDA
:100C4000680F791F8A1F911DA11D6A0F711D811DDB
:100C5000911DA11D20D009F468943F912AE0269FA0
:100C600011243019305D3193DEF6CF010895462FFF
:100C70004770405D4193B3E00FD0C9F7F6CF462FE0
:100C80004F70405D4A3318F0495D31FD4052419349
:100C900002D0A9F7EACFB4E0A69597958795779506
:100CA0006795BA95C9F700976105710508959B018D
:100CB000AC010A2E06945795479537952795BA9516
:100CC000C9F7620F731F841F951FA01D08952F92EF
:100CD0003F924F925F926F927F928F929F92AF92CC
:100CE000BF92CF92DF92EF92FF920F931F93CF9319
:100CF000DF93CDB7DEB7CA1BDB0B0FB6F894DEBFB0
:100D00000FBECDBF09942A88398848885F846E84D5
:100D10007D848C849B84AA84B984C884DF80EE801F
:100D2000FD800C811B81AA81B981CE0FD11D0FB628
:100D3000F894DEBF0FBECDBFED010895F894FFCF4C
:100D40000000803F536C6176652044657669636579
:100D5000005265636569766520446174613A2020BC
:0A0D60002020002564202020000060
:00000001FF
