:100000000C942A000C9447000C9447000C94470071
:100010000C9447000C9447000C9447000C94470044
:100020000C9447000C9447000C9447000C94470034
:100030000C9447000C9447000C9447000C94470024
:100040000C9447000C9447000C9447000C94470014
:100050000C94470011241FBECFE5D4E0DEBFCDBF16
:1000600010E0A0E6B0E0ECEAF6E002C005900D92E8
:10007000AA36B107D9F720E0AAE6B0E001C01D9288
:10008000A037B207E1F70E9449000C9454030C9486
:100090000000CF93DF93CDB7DEB784E390E02FEF7E
:1000A000FC01208387E390E020EFFC01208387E2BE
:1000B00090E020EEFC01208386E290E024E8FC0141
:1000C000208310926F0010926E0081E00E946F00FA
:1000D00090936F0080936E000E94A600F6CFCF939E
:1000E000DF931F92CDB7DEB7898387E290E0298145
:1000F000FC01208360E070E080E89FE30E944601FD
:1001000086E290E026E230E0F90120812064FC01E3
:100110002083000086E290E0FC018081882F90E03F
:1001200080719927892BB1F386E290E026E230E0D6
:10013000F90120812061FC01208384E290E0FC0130
:10014000808191810F90DF91CF910895CF93DF93BC
:100150001F92CDB7DEB7198225E330E080916E00A3
:1001600090916F004AE050E0BA010E94D901805A94
:100170009F4FFC018081F901808388E390E02FE7A5
:10018000FC01208360E070E080E89FE30E9446016C
:1001900088E390E02FEFFC01208325E330E080919D
:1001A0006E0090916F004AE050E0BA010E94D901C0
:1001B000CB014AE050E0BA010E94D901805A9F4F1A
:1001C000FC018081F901808388E390E02FEBFC0142
:1001D000208360E070E080E89FE30E94460188E3AE
:1001E00090E02FEFFC01208325E330E080916E004A
:1001F00090916F0044E650E0BA010E94D901CB0112
:100200004AE050E0BA010E94D901805A9F4FFC0198
:100210008081F901808388E390E02FEDFC01208349
:1002200060E070E080E89FE30E94460188E390E090
:100230002FEFFC01208325E330E080916E00909148
:100240006F0048EE53E0BA010E94D901CB014AE0A9
:1002500050E0BA010E94D901805A9F4FFC01808171
:10026000F901808388E390E02FEEFC01208360E0B9
:1002700070E080E89FE30E94460188E390E02FEF62
:10028000FC01208389818F5F898366CFCF92DF92C3
:10029000EF92FF92CF93DF93CDB7DEB72C970FB6D7
:1002A000F894DEBF0FBECDBF69877A878B879C87A6
:1002B0001A82198280916A0090916B00A0916C0063
:1002C000B0916D008B839C83AD83BE8320E030E0D2
:1002D0004AE754E46B817C818D819E810E94BF023C
:1002E000DC01CB01BC01CD010E940602DC01CB0187
:1002F00098878F8307C089819A8101969A83898321
:100300000E94B80189819A81CC01A0E0B0E0BC01D3
:10031000CD010E9435026B017C018F819885CC0153
:10032000A0E0B0E0BC01CD010E943502DC01CB01B0
:1003300029853A854B855C85BC01CD010E94BF02B1
:10034000DC01CB019C01AD01C701B6010E94010295
:1003500088238CF200002C960FB6F894DEBF0FBEF7
:10036000CDBFDF91CF91FF90EF90DF90CF900895B8
:10037000CF93DF93CDB7DEB782E590E0FC0110822A
:1003800083E590E021E0FC012083000088E590E017
:10039000FC0180818130D1F383E590E0FC01108283
:1003A00088E590E021E0FC0120830000DF91CF91FF
:1003B000089597FB072E16F4009407D077FD09D017
:1003C0000E94ED0107FC05D03EF4909581959F4F6A
:1003D0000895709561957F4F0895AA1BBB1B51E14D
:1003E00007C0AA1FBB1FA617B70710F0A61BB70BA5
:1003F000881F991F5A95A9F780959095BC01CD014A
:1004000008950E94720208F481E008950E949E02FD
:1004100088F09F5798F0B92F9927B751B0F0E1F0C5
:10042000660F771F881F991F1AF0BA95C9F714C075
:10043000B13091F00E94B802B1E008950C94B80276
:10044000672F782F8827B85F39F0B93FCCF38695AE
:1004500077956795B395D9F73EF49095809570950B
:1004600061957F4F8F4F9F4F0895E89409C097FB88
:100470003EF490958095709561957F4F8F4F9F4F7B
:100480009923A9F0F92F96E9BB279395F6958795BF
:1004900077956795B795F111F8CFFAF4BB0F11F482
:1004A00060FF1BC06F5F7F4F8F4F9F4F16C0882329
:1004B00011F096E911C0772321F09EE8872F762F5F
:1004C00005C0662371F096E8862F70E060E02AF0A0
:1004D0009A95660F771F881FDAF7880F969587958C
:1004E00097F90895990F0008550FAA0BE0E8FEEF61
:1004F00016161706E807F907C0F012161306E407E8
:10050000F50798F0621B730B840B950B39F40A26E0
:1005100061F0232B242B252B21F408950A2609F4BE
:10052000A140A6958FEF811D811D089557FD90581C
:10053000440F551F59F05F3F71F04795880F97FBA7
:10054000991F61F09F3F79F0879508951216130661
:100550001406551FF2CF4695F1DF08C01616170690
:100560001806991FF1CF86957105610508940895C5
:10057000E894BB2766277727CB0197F908950E9457
:10058000D2020C9443030E94350338F00E943C03CE
:1005900020F0952311F00C942C030C9432031124B9
:1005A0000C94B9020E94960270F3959FC1F3950FC7
:1005B00050E0551F629FF001729FBB27F00DB11DE7
:1005C000639FAA27F00DB11DAA1F649F6627B00D77
:1005D000A11D661F829F2227B00DA11D621F739F60
:1005E000B00DA11D621F839FA00D611D221F749F6E
:1005F0003327A00D611D231F849F600D211D822FB5
:10060000762F6A2F11249F5750409AF0F1F08823DB
:100610004AF0EE0FFF1FBB1F661F771F881F915008
:100620005040A9F79E3F510580F00C942C030C9488
:10063000B9025F3FE4F3983ED4F3869577956795CA
:10064000B795F795E7959F5FC1F7FE2B880F911D32
:100650009695879597F9089597F99F6780E870E0D8
:1006600060E008959FEF80EC089500240A94161628
:10067000170618060906089500240A941216130690
:10068000140605060895092E0394000C11F488231E
:1006900052F0BB0F40F4BF2B11F460FF04C06F5F3A
:0C06A0007F4F8F4F9F4F0895F894FFCFBD
:0A06AC003F065B4F666D7D077F6F10
:00000001FF
